{
  "contractName": "Chingari",
  "abi": [
    {
      "anonymous": false,
      "inputs": [
        {
          "indexed": false,
          "internalType": "string",
          "name": "",
          "type": "string"
        },
        {
          "indexed": false,
          "internalType": "string",
          "name": "",
          "type": "string"
        },
        {
          "indexed": false,
          "internalType": "uint256",
          "name": "",
          "type": "uint256"
        }
      ],
      "name": "success",
      "type": "event"
    },
    {
      "inputs": [
        {
          "internalType": "string",
          "name": "",
          "type": "string"
        }
      ],
      "name": "linktoOwner",
      "outputs": [
        {
          "internalType": "string",
          "name": "videoLink",
          "type": "string"
        },
        {
          "internalType": "string",
          "name": "videoName",
          "type": "string"
        },
        {
          "internalType": "string",
          "name": "videoDescription",
          "type": "string"
        },
        {
          "internalType": "uint256",
          "name": "videoPrice",
          "type": "uint256"
        },
        {
          "internalType": "bool",
          "name": "listed",
          "type": "bool"
        },
        {
          "internalType": "uint256",
          "name": "videoLikes",
          "type": "uint256"
        },
        {
          "internalType": "uint256",
          "name": "videoComments",
          "type": "uint256"
        },
        {
          "internalType": "string",
          "name": "videoCategory",
          "type": "string"
        },
        {
          "internalType": "address",
          "name": "owner",
          "type": "address"
        },
        {
          "internalType": "uint256",
          "name": "revenue",
          "type": "uint256"
        },
        {
          "internalType": "uint256",
          "name": "royaltyPercent",
          "type": "uint256"
        },
        {
          "internalType": "uint256",
          "name": "ownPercent",
          "type": "uint256"
        }
      ],
      "stateMutability": "view",
      "type": "function"
    },
    {
      "inputs": [
        {
          "internalType": "address",
          "name": "",
          "type": "address"
        },
        {
          "internalType": "uint256",
          "name": "",
          "type": "uint256"
        }
      ],
      "name": "vList",
      "outputs": [
        {
          "internalType": "string",
          "name": "",
          "type": "string"
        }
      ],
      "stateMutability": "view",
      "type": "function"
    },
    {
      "inputs": [],
      "name": "allSize",
      "outputs": [
        {
          "internalType": "uint256",
          "name": "",
          "type": "uint256"
        }
      ],
      "stateMutability": "view",
      "type": "function"
    },
    {
      "inputs": [],
      "name": "allDisplay",
      "outputs": [
        {
          "components": [
            {
              "internalType": "string",
              "name": "videoLink",
              "type": "string"
            },
            {
              "internalType": "string",
              "name": "videoName",
              "type": "string"
            },
            {
              "internalType": "string",
              "name": "videoDescription",
              "type": "string"
            },
            {
              "internalType": "uint256",
              "name": "videoPrice",
              "type": "uint256"
            },
            {
              "internalType": "bool",
              "name": "listed",
              "type": "bool"
            },
            {
              "internalType": "uint256",
              "name": "videoLikes",
              "type": "uint256"
            },
            {
              "internalType": "uint256",
              "name": "videoComments",
              "type": "uint256"
            },
            {
              "internalType": "string",
              "name": "videoCategory",
              "type": "string"
            },
            {
              "internalType": "address[]",
              "name": "likers",
              "type": "address[]"
            },
            {
              "components": [
                {
                  "internalType": "string",
                  "name": "line",
                  "type": "string"
                },
                {
                  "internalType": "address",
                  "name": "commenter",
                  "type": "address"
                },
                {
                  "internalType": "uint256",
                  "name": "tip",
                  "type": "uint256"
                }
              ],
              "internalType": "struct Chingari.comment[]",
              "name": "comments",
              "type": "tuple[]"
            },
            {
              "internalType": "address",
              "name": "owner",
              "type": "address"
            },
            {
              "internalType": "uint256",
              "name": "revenue",
              "type": "uint256"
            },
            {
              "internalType": "address[]",
              "name": "buyers",
              "type": "address[]"
            },
            {
              "internalType": "uint256",
              "name": "royaltyPercent",
              "type": "uint256"
            },
            {
              "internalType": "uint256",
              "name": "ownPercent",
              "type": "uint256"
            }
          ],
          "internalType": "struct Chingari.videonomap[]",
          "name": "",
          "type": "tuple[]"
        }
      ],
      "stateMutability": "view",
      "type": "function"
    },
    {
      "inputs": [
        {
          "internalType": "string",
          "name": "link",
          "type": "string"
        },
        {
          "internalType": "string",
          "name": "_name",
          "type": "string"
        },
        {
          "internalType": "string",
          "name": "_desc",
          "type": "string"
        },
        {
          "internalType": "string",
          "name": "_cate",
          "type": "string"
        },
        {
          "internalType": "uint256",
          "name": "val",
          "type": "uint256"
        }
      ],
      "name": "create",
      "outputs": [],
      "stateMutability": "nonpayable",
      "type": "function"
    },
    {
      "inputs": [
        {
          "internalType": "string",
          "name": "link",
          "type": "string"
        }
      ],
      "name": "like",
      "outputs": [],
      "stateMutability": "payable",
      "type": "function"
    },
    {
      "inputs": [
        {
          "internalType": "string",
          "name": "link",
          "type": "string"
        },
        {
          "internalType": "string",
          "name": "_comment",
          "type": "string"
        }
      ],
      "name": "newcomment",
      "outputs": [],
      "stateMutability": "nonpayable",
      "type": "function"
    },
    {
      "inputs": [
        {
          "internalType": "string",
          "name": "link",
          "type": "string"
        },
        {
          "internalType": "string",
          "name": "_comment",
          "type": "string"
        }
      ],
      "name": "commentTip",
      "outputs": [],
      "stateMutability": "payable",
      "type": "function"
    },
    {
      "inputs": [
        {
          "internalType": "uint256",
          "name": "id",
          "type": "uint256"
        },
        {
          "internalType": "uint256",
          "name": "price",
          "type": "uint256"
        },
        {
          "internalType": "uint256",
          "name": "date",
          "type": "uint256"
        },
        {
          "internalType": "string",
          "name": "date2",
          "type": "string"
        }
      ],
      "name": "alist",
      "outputs": [],
      "stateMutability": "nonpayable",
      "type": "function"
    },
    {
      "inputs": [
        {
          "internalType": "uint256",
          "name": "id",
          "type": "uint256"
        },
        {
          "internalType": "uint256",
          "name": "date",
          "type": "uint256"
        }
      ],
      "name": "auctionBid",
      "outputs": [],
      "stateMutability": "payable",
      "type": "function"
    },
    {
      "inputs": [],
      "name": "ashow",
      "outputs": [
        {
          "components": [
            {
              "internalType": "string",
              "name": "videoLink",
              "type": "string"
            },
            {
              "internalType": "uint256",
              "name": "royaltyPercent",
              "type": "uint256"
            },
            {
              "internalType": "address",
              "name": "owner",
              "type": "address"
            },
            {
              "internalType": "string",
              "name": "name",
              "type": "string"
            },
            {
              "internalType": "bool",
              "name": "onsell",
              "type": "bool"
            },
            {
              "internalType": "uint256",
              "name": "nftId",
              "type": "uint256"
            },
            {
              "internalType": "uint256",
              "name": "sprice",
              "type": "uint256"
            },
            {
              "internalType": "uint256",
              "name": "cprice",
              "type": "uint256"
            },
            {
              "internalType": "uint256",
              "name": "date",
              "type": "uint256"
            },
            {
              "internalType": "address",
              "name": "powner",
              "type": "address"
            },
            {
              "internalType": "address",
              "name": "cowner",
              "type": "address"
            },
            {
              "internalType": "bool",
              "name": "corrupt",
              "type": "bool"
            },
            {
              "internalType": "string",
              "name": "date2",
              "type": "string"
            }
          ],
          "internalType": "struct Chingari.auclisting[]",
          "name": "",
          "type": "tuple[]"
        }
      ],
      "stateMutability": "view",
      "type": "function"
    },
    {
      "inputs": [
        {
          "internalType": "uint256",
          "name": "id",
          "type": "uint256"
        }
      ],
      "name": "acancel",
      "outputs": [],
      "stateMutability": "nonpayable",
      "type": "function"
    },
    {
      "inputs": [
        {
          "internalType": "uint256",
          "name": "id",
          "type": "uint256"
        },
        {
          "internalType": "uint256",
          "name": "date",
          "type": "uint256"
        }
      ],
      "name": "aaccept",
      "outputs": [],
      "stateMutability": "nonpayable",
      "type": "function"
    },
    {
      "inputs": [
        {
          "internalType": "string",
          "name": "link",
          "type": "string"
        },
        {
          "internalType": "uint256",
          "name": "percent",
          "type": "uint256"
        },
        {
          "internalType": "string",
          "name": "name",
          "type": "string"
        }
      ],
      "name": "nftCreate",
      "outputs": [],
      "stateMutability": "nonpayable",
      "type": "function"
    },
    {
      "inputs": [
        {
          "internalType": "address",
          "name": "user",
          "type": "address"
        }
      ],
      "name": "nftown",
      "outputs": [
        {
          "components": [
            {
              "internalType": "string",
              "name": "videoLink",
              "type": "string"
            },
            {
              "internalType": "uint256",
              "name": "royaltyPercent",
              "type": "uint256"
            },
            {
              "internalType": "address",
              "name": "owner",
              "type": "address"
            },
            {
              "internalType": "string",
              "name": "name",
              "type": "string"
            },
            {
              "internalType": "bool",
              "name": "onsell",
              "type": "bool"
            },
            {
              "internalType": "uint256",
              "name": "id",
              "type": "uint256"
            }
          ],
          "internalType": "struct Chingari.nftdet[]",
          "name": "",
          "type": "tuple[]"
        }
      ],
      "stateMutability": "view",
      "type": "function"
    },
    {
      "inputs": [],
      "name": "dshow",
      "outputs": [
        {
          "components": [
            {
              "internalType": "string",
              "name": "videoLink",
              "type": "string"
            },
            {
              "internalType": "uint256",
              "name": "royaltyPercent",
              "type": "uint256"
            },
            {
              "internalType": "address",
              "name": "owner",
              "type": "address"
            },
            {
              "internalType": "string",
              "name": "name",
              "type": "string"
            },
            {
              "internalType": "bool",
              "name": "onsell",
              "type": "bool"
            },
            {
              "internalType": "uint256",
              "name": "id",
              "type": "uint256"
            },
            {
              "internalType": "uint256",
              "name": "price",
              "type": "uint256"
            },
            {
              "internalType": "uint256",
              "name": "date",
              "type": "uint256"
            },
            {
              "internalType": "bool",
              "name": "corrupt",
              "type": "bool"
            },
            {
              "internalType": "string",
              "name": "date2",
              "type": "string"
            }
          ],
          "internalType": "struct Chingari.blisting[]",
          "name": "",
          "type": "tuple[]"
        }
      ],
      "stateMutability": "view",
      "type": "function"
    },
    {
      "inputs": [
        {
          "internalType": "uint256",
          "name": "id",
          "type": "uint256"
        },
        {
          "internalType": "uint256",
          "name": "price",
          "type": "uint256"
        },
        {
          "internalType": "uint256",
          "name": "date",
          "type": "uint256"
        },
        {
          "internalType": "string",
          "name": "date2",
          "type": "string"
        }
      ],
      "name": "dlist",
      "outputs": [],
      "stateMutability": "nonpayable",
      "type": "function"
    },
    {
      "inputs": [
        {
          "internalType": "uint256",
          "name": "id",
          "type": "uint256"
        },
        {
          "internalType": "uint256",
          "name": "date",
          "type": "uint256"
        }
      ],
      "name": "dbuy",
      "outputs": [],
      "stateMutability": "payable",
      "type": "function"
    },
    {
      "inputs": [
        {
          "internalType": "uint256",
          "name": "id",
          "type": "uint256"
        }
      ],
      "name": "dcancel",
      "outputs": [],
      "stateMutability": "nonpayable",
      "type": "function"
    }
  ],
  "bytecode": "0x6080604052600060045534801561001557600080fd5b5061572b80620000266000396000f3fe608060405260043610610131576000357c01000000000000000000000000000000000000000000000000000000009004806397c7f27e116100bd578063cf8db6ee11610081578063cf8db6ee146102fa578063e6ec559a1461031a578063e9a967fd1461033a578063ed95be9e14610372578063f0a0f7061461039557600080fd5b806397c7f27e1461025657806398fe76bd14610269578063bb33fefa14610296578063c634cdb0146102b8578063ca734f82146102d857600080fd5b80634e08dbba116101045780634e08dbba146101b657806368197a2c146101d657806379a4f0731461020357806379cd094f146102235780638529aaef1461023657600080fd5b806325c10f02146101365780632edf2168146101585780632fde70d11461016b57806334f1e4851461018b575b600080fd5b34801561014257600080fd5b50610156610151366004614b39565b6103a8565b005b610156610166366004614b93565b610539565b34801561017757600080fd5b50610156610186366004614bd0565b6107a5565b34801561019757600080fd5b506101a0610b8e565b6040516101ad9190614cdd565b60405180910390f35b3480156101c257600080fd5b506101566101d1366004614e16565b61137c565b3480156101e257600080fd5b506101f66101f1366004614e96565b61147b565b6040516101ad9190614eb8565b34801561020f57600080fd5b5061015661021e366004614b39565b61178b565b610156610231366004614f62565b611860565b34801561024257600080fd5b50610156610251366004614f84565b611ad8565b610156610264366004614f62565b611cf7565b34801561027557600080fd5b50610289610284366004614f9d565b612269565b6040516101ad9190614fc7565b3480156102a257600080fd5b506102ab612322565b6040516101ad919061509b565b3480156102c457600080fd5b506101566102d3366004614f84565b613186565b3480156102e457600080fd5b506102ed6132f7565b6040516101ad919061520d565b34801561030657600080fd5b50610156610315366004615306565b613959565b34801561032657600080fd5b50610156610335366004614f62565b613d6d565b34801561034657600080fd5b5061035a610355366004614b93565b61436e565b6040516101ad9c9b9a99989796959493929190615373565b34801561037e57600080fd5b50610387614605565b6040519081526020016101ad565b6101566103a3366004614e16565b614692565b600084815260086020526040902060020154600160a060020a031633146103ed5760405160e560020a62461bcd0281526004016103e490615415565b60405180910390fd5b60008481526008602052604090206004015460ff16156104525760405160e560020a62461bcd02815260206004820152601360248201527f4e465420616c7265616479206f6e2073656c6c0000000000000000000000000060448201526064016103e4565b60008481526008602090815260408083206004908101805460ff19166001908117909155600984529190932087815590810186905560028101869055600381018590559182018054600160a060020a0319163390811790915560058301805474ff00000000000000000000000000000000000000001990921674ffffffffffffffffffffffffffffffffffffffffff1990921691909117905582516104fd926006019184019061497f565b5050600680546001810182556000919091527ff652222313e28459528d920b65115c16c04f3efc82aaedc97be59f3f377c0d3f01929092555050565b6002816040516105499190615472565b9081526040519081900360200190206005018054906000610569836154a7565b919050555060028160405161057e9190615472565b908152604051908190036020908101822060080180546001810182556000918252919020018054600160a060020a0319163317905534906002906105c3908490615472565b9081526020016040518091039020600b0160008282546105e391906154c2565b90915550506040516002906105f9908390615472565b908152604051908190036020018120600a0154600160a060020a0316906108fc9060649060029061062b908690615472565b9081526020016040518091039020600f01543461064891906154da565b61065291906154f9565b6040518115909202916000818181858888f1935050505015801561067a573d6000803e3d6000fd5b5060005b60028260405161068e9190615472565b908152604051908190036020019020600d01548110156107a1576002826040516106b89190615472565b9081526020016040518091039020600d0181815481106106da576106da61551e565b906000526020600020906006020160020160009054906101000a9004600160a060020a0316600160a060020a03166108fc606460028560405161071d9190615472565b9081526020016040518091039020600d01848154811061073f5761073f61551e565b9060005260206000209060060201600101543461075c91906154da565b61076691906154f9565b6040518115909202916000818181858888f1935050505015801561078e573d6000803e3d6000fd5b5080610799816154a7565b91505061067e565b5050565b6003856040516107b59190615472565b9081526040519081900360200190205460ff161561083e5760405160e560020a62461bcd02815260206004820152602260248201527f4e465420616c7265616479206372656174656420666f7220746869732076696460448201527f656f00000000000000000000000000000000000000000000000000000000000060648201526084016103e4565b6000805b60005481101561089f5733600160a060020a0316600082815481106108695761086961551e565b600091825260209091200154600160a060020a0316141561088d576001915061089f565b80610897816154a7565b915050610842565b50806108e557600080546001810182559080527f290decd9548b62a8d60345a988386fc84ba6bc95484008f6362f93160ef3e563018054600160a060020a031916331790555b33600090815260016020818152604083208054928301815583529182902088516109179391909201919089019061497f565b50336002876040516109299190615472565b9081526020016040518091039020600a0160006101000a815481600160a060020a030219169083600160a060020a031602179055508560028760405161096f9190615472565b9081526020016040518091039020600001908051906020019061099392919061497f565b50846002876040516109a59190615472565b908152602001604051809103902060010190805190602001906109c992919061497f565b50836002876040516109db9190615472565b908152602001604051809103902060020190805190602001906109ff92919061497f565b5082600287604051610a119190615472565b90815260200160405180910390206007019080519060200190610a3592919061497f565b5081600287604051610a479190615472565b9081526020016040518091039020600301819055506000600287604051610a6e9190615472565b9081526020016040518091039020600501819055506000600287604051610a959190615472565b908152604051908190036020018120600401805492151560ff1990931692909217909155600090600290610aca908990615472565b9081526020016040518091039020600601819055506000600287604051610af19190615472565b9081526020016040518091039020600b01819055506064600287604051610b189190615472565b9081526020016040518091039020600f01819055506000600287604051610b3f9190615472565b9081526020016040518091039020600e01819055506001600387604051610b669190615472565b908152604051908190036020019020805491151560ff19909216919091179055505050505050565b60065460609060009067ffffffffffffffff811115610baf57610baf614a93565b604051908082528060200260200182016040528015610c6a57816020015b610c57604051806101a0016040528060608152602001600081526020016000600160a060020a0316815260200160608152602001600015158152602001600081526020016000815260200160008152602001600081526020016000600160a060020a031681526020016000600160a060020a03168152602001600015158152602001606081525090565b815260200190600190039081610bcd5790505b5090506000805b600654811015611374576009600060068381548110610c9257610c9261551e565b6000918252602080832090910154835282019290925260400190206005015460ff60a060020a90910416611362576008600060068381548110610cd757610cd761551e565b906000526020600020015481526020019081526020016000206000018054610cfe90615537565b80601f0160208091040260200160405190810160405280929190818152602001828054610d2a90615537565b8015610d775780601f10610d4c57610100808354040283529160200191610d77565b820191906000526020600020905b815481529060010190602001808311610d5a57829003601f168201915b5050505050838381518110610d8e57610d8e61551e565b6020026020010151600001819052506008600060068381548110610db457610db461551e565b9060005260206000200154815260200190815260200160002060010154838381518110610de357610de361551e565b602002602001015160200181815250506008600060068381548110610e0a57610e0a61551e565b9060005260206000200154815260200190815260200160002060020160009054906101000a9004600160a060020a0316838381518110610e4c57610e4c61551e565b602002602001015160400190600160a060020a03169081600160a060020a0316815250506008600060068381548110610e8757610e8761551e565b906000526020600020015481526020019081526020016000206003018054610eae90615537565b80601f0160208091040260200160405190810160405280929190818152602001828054610eda90615537565b8015610f275780601f10610efc57610100808354040283529160200191610f27565b820191906000526020600020905b815481529060010190602001808311610f0a57829003601f168201915b5050505050838381518110610f3e57610f3e61551e565b6020026020010151606001819052506008600060068381548110610f6457610f6461551e565b9060005260206000200154815260200190815260200160002060040160009054906101000a900460ff16838381518110610fa057610fa061551e565b602002602001015160800190151590811515815250506009600060068381548110610fcd57610fcd61551e565b9060005260206000200154815260200190815260200160002060000154838381518110610ffc57610ffc61551e565b602002602001015160a001818152505060096000600683815481106110235761102361551e565b90600052602060002001548152602001908152602001600020600101548383815181106110525761105261551e565b602002602001015160c001818152505060096000600683815481106110795761107961551e565b90600052602060002001548152602001908152602001600020600201548383815181106110a8576110a861551e565b602002602001015160e001818152505060096000600683815481106110cf576110cf61551e565b90600052602060002001548152602001908152602001600020600301548383815181106110fe576110fe61551e565b602002602001015161010001818152505060096000600683815481106111265761112661551e565b9060005260206000200154815260200190815260200160002060040160009054906101000a9004600160a060020a03168383815181106111685761116861551e565b60200260200101516101200190600160a060020a03169081600160a060020a03168152505060096000600683815481106111a4576111a461551e565b9060005260206000200154815260200190815260200160002060050160009054906101000a9004600160a060020a03168383815181106111e6576111e661551e565b60200260200101516101400190600160a060020a03169081600160a060020a03168152505060096000600683815481106112225761122261551e565b9060005260206000200154815260200190815260200160002060050160149054906101000a900460ff1683838151811061125e5761125e61551e565b6020026020010151610160019015159081151581525050600960006006838154811061128c5761128c61551e565b9060005260206000200154815260200190815260200160002060060180546112b390615537565b80601f01602080910402602001604051908101604052809291908181526020018280546112df90615537565b801561132c5780601f106113015761010080835404028352916020019161132c565b820191906000526020600020905b81548152906001019060200180831161130f57829003601f168201915b50505050508383815181106113435761134361551e565b60200260200101516101800181905250818061135e906154a7565b9250505b8061136c816154a7565b915050610c71565b509092915050565b60028260405161138c9190615472565b90815260405190819003602001902060060180549060006113ac836154a7565b91905055506113de6040518060600160405280606081526020016000600160a060020a03168152602001600081525090565b818152336020820152600060408083019190915251600290611401908590615472565b9081526040516020918190038201902060090180546001810182556000918252908290208351805185946003909402909201926114439284929091019061497f565b506020820151600182018054600160a060020a031916600160a060020a03909216919091179055604090910151600290910155505050565b600160a060020a0381166000908152600760205260408120546060919067ffffffffffffffff8111156114b0576114b0614a93565b60405190808252806020026020018201604052801561152557816020015b6115126040518060c0016040528060608152602001600081526020016000600160a060020a0316815260200160608152602001600015158152602001600081525090565b8152602001906001900390816114ce5790505b50905060005b600160a060020a03841660009081526007602052604090205481101561178457600160a060020a0384166000908152600760205260408120805460089291908490811061157a5761157a61551e565b6000918252602080832090910154835282019290925260400190206004015460ff1661177257600160a060020a038416600090815260076020526040812080546008929190849081106115cf576115cf61551e565b906000526020600020015481526020019081526020016000206040518060c001604052908160008201805461160390615537565b80601f016020809104026020016040519081016040528092919081815260200182805461162f90615537565b801561167c5780601f106116515761010080835404028352916020019161167c565b820191906000526020600020905b81548152906001019060200180831161165f57829003601f168201915b5050509183525050600182015460208201526002820154600160a060020a031660408201526003820180546060909201916116b690615537565b80601f01602080910402602001604051908101604052809291908181526020018280546116e290615537565b801561172f5780601f106117045761010080835404028352916020019161172f565b820191906000526020600020905b81548152906001019060200180831161171257829003601f168201915b5050509183525050600482015460ff161515602082015260059091015460409091015282518390839081106117665761176661551e565b60200260200101819052505b8061177c816154a7565b91505061152b565b5092915050565b600084815260086020526040902060020154600160a060020a031633146117c75760405160e560020a62461bcd0281526004016103e490615415565b6000848152600a60209081526040909120858155600181018590556002810184905560038101805460ff1916905582516118099260049092019184019061497f565b5050506000828152600860205260408120600401805460ff191660019081179091556005805491820181559091527f036b6384b5eca791c62761152d0c79bb0604c104a5fb6f4eb0703f3154bb3db0019190915550565b60008281526009602052604090206005015460a060020a900460ff16156118cc5760405160e560020a62461bcd02815260206004820152601060248201527f4e465420697320636f727275707465640000000000000000000000000000000060448201526064016103e4565b600082815260096020526040902060010154341161192f5760405160e560020a62461bcd02815260206004820152601c60248201527f426964206d6f7265207468616e207374617274696e672070726963650000000060448201526064016103e4565b60008281526009602052604090206002015434116119925760405160e560020a62461bcd02815260206004820152601b60248201527f426964206d6f7265207468616e2063757272656e74207072696365000000000060448201526064016103e4565b6000828152600960205260409020600301548111156119f65760405160e560020a62461bcd02815260206004820152600c60248201527f596f7520617265206c617465000000000000000000000000000000000000000060448201526064016103e4565b600082815260096020526040902060040154600160a060020a0316331415611a335760405160e560020a62461bcd0281526004016103e49061556f565b60008281526009602052604090206004810154600590910154600160a060020a03908116911614611aae5760008281526009602052604080822060058101546002909101549151600160a060020a039091169282156108fc02929190818181858888f19350505050158015611aac573d6000803e3d6000fd5b505b5060009081526009602052604090203460028201556005018054600160a060020a03191633179055565b600081815260086020526040902060020154600160a060020a03163314611b145760405160e560020a62461bcd0281526004016103e490615415565b60008181526008602052604090206004015460ff161515600114611b7d5760405160e560020a62461bcd02815260206004820152601260248201527f4e4654206973206e6f74206f6e2073656c6c000000000000000000000000000060448201526064016103e4565b60008181526009602052604090206004810154600590910154600160a060020a03908116911614611bf85760008181526009602052604080822060058101546002909101549151600160a060020a039091169282156108fc02929190818181858888f19350505050158015611bf6573d6000803e3d6000fd5b505b6000818152600860209081526040808320600401805460ff1916905560099091528120600501805474ff0000000000000000000000000000000000000000191660a060020a1790555b6006548110156107a1578160068281548110611c5f57611c5f61551e565b90600052602060002001541415611ce55760068054611c80906001906155a6565b81548110611c9057611c9061551e565b906000526020600020015460068281548110611cae57611cae61551e565b6000918252602090912001556006805480611ccb57611ccb6155bd565b600190038181906000526020600020016000905590555050565b80611cef816154a7565b915050611c41565b600082815260086020526040902060020154600160a060020a0316331415611d345760405160e560020a62461bcd0281526004016103e49061556f565b6000828152600a6020526040902060010154341015611d985760405160e560020a62461bcd02815260206004820152601760248201527f4e6f7420746865206d656e74696f6e656420707269636500000000000000000060448201526064016103e4565b6000828152600a6020526040902060020154811115611dfc5760405160e560020a62461bcd02815260206004820152600c60248201527f596f7520617265206c617465000000000000000000000000000000000000000060448201526064016103e4565b6000828152600a602052604090206003015460ff1615611e615760405160e560020a62461bcd02815260206004820152601060248201527f4e465420616c726561647920736f6c640000000000000000000000000000000060448201526064016103e4565b6000828152600a60209081526040808320600301805460ff191660011790556008909152808220600201549051600160a060020a03909116913480156108fc02929091818181858888f19350505050158015611ec1573d6000803e3d6000fd5b5060005b600083815260086020526040908190209051600291611ee3916155d6565b908152604051908190036020019020600d0154811015611fe7576000838152600860205260409081902090518491600291611f1e91906155d6565b9081526020016040518091039020600d018281548110611f4057611f4061551e565b9060005260206000209060060201600501541415611fd5576000838152600860205260409081902090513391600291611f7991906155d6565b9081526020016040518091039020600d018281548110611f9b57611f9b61551e565b906000526020600020906006020160020160006101000a815481600160a060020a030219169083600160a060020a03160217905550611fe7565b80611fdf816154a7565b915050611ec5565b5060005b600083815260086020908152604080832060020154600160a060020a03168352600790915290205481101561215c57600083815260086020908152604080832060020154600160a060020a03168352600790915290208054849190839081106120565761205661551e565b9060005260206000200154141561214a57600083815260086020908152604080832060020154600160a060020a0316835260079091529020805461209c906001906155a6565b815481106120ac576120ac61551e565b600091825260208083209091015485835260088252604080842060020154600160a060020a03168452600790925291208054839081106120ee576120ee61551e565b600091825260208083209091019290925584815260088252604080822060020154600160a060020a0316825260079092522080548061212f5761212f6155bd565b6001900381819060005260206000200160009055905561215c565b80612154816154a7565b915050611feb565b506000828152600860209081526040808320600281018054600160a060020a031916339081179091556004909101805460ff1916905583526007825282208054600181018255908352908220018390555b6005548110156122645782600582815481106121cb576121cb61551e565b9060005260206000200154141561225257600580546121ec906001906155a6565b815481106121fc576121fc61551e565b90600052602060002001546005828154811061221a5761221a61551e565b6000918252602090912001556005805480612237576122376155bd565b60019003818190600052602060002001600090559055505050565b8061225c816154a7565b9150506121ad565b505050565b6001602052816000526040600020818154811061228557600080fd5b906000526020600020016000915091505080546122a190615537565b80601f01602080910402602001604051908101604052809291908181526020018280546122cd90615537565b801561231a5780601f106122ef5761010080835404028352916020019161231a565b820191906000526020600020905b8154815290600101906020018083116122fd57829003601f168201915b505050505081565b6060600061232e614605565b905060008167ffffffffffffffff81111561234b5761234b614a93565b60405190808252806020026020018201604052801561240057816020015b6123ed604051806101e001604052806060815260200160608152602001606081526020016000815260200160001515815260200160008152602001600081526020016060815260200160608152602001606081526020016000600160a060020a03168152602001600081526020016060815260200160008152602001600081525090565b8152602001906001900390816123695790505b5090506000805b60005481101561317d5760005b6001600080848154811061242a5761242a61551e565b6000918252602080832090910154600160a060020a0316835282019290925260400190205481101561316a5760026001600080858154811061246e5761246e61551e565b6000918252602080832090910154600160a060020a0316835282019290925260400190208054839081106124a4576124a461551e565b906000526020600020016040516124bb91906155d6565b908152604051908190036020019020600a01548451600160a060020a03909116908590859081106124ee576124ee61551e565b60200260200101516101400190600160a060020a03169081600160a060020a03168152505060026001600080858154811061252b5761252b61551e565b6000918252602080832090910154600160a060020a0316835282019290925260400190208054839081106125615761256161551e565b9060005260206000200160405161257891906155d6565b908152604051908190036020019020805461259290615537565b80601f01602080910402602001604051908101604052809291908181526020018280546125be90615537565b801561260b5780601f106125e05761010080835404028352916020019161260b565b820191906000526020600020905b8154815290600101906020018083116125ee57829003601f168201915b50505050508484815181106126225761262261551e565b6020026020010151600001819052506002600160008085815481106126495761264961551e565b6000918252602080832090910154600160a060020a03168352820192909252604001902080548390811061267f5761267f61551e565b9060005260206000200160405161269691906155d6565b908152602001604051809103902060010180546126b290615537565b80601f01602080910402602001604051908101604052809291908181526020018280546126de90615537565b801561272b5780601f106127005761010080835404028352916020019161272b565b820191906000526020600020905b81548152906001019060200180831161270e57829003601f168201915b50505050508484815181106127425761274261551e565b6020026020010151602001819052506002600160008085815481106127695761276961551e565b6000918252602080832090910154600160a060020a03168352820192909252604001902080548390811061279f5761279f61551e565b906000526020600020016040516127b691906155d6565b908152602001604051809103902060020180546127d290615537565b80601f01602080910402602001604051908101604052809291908181526020018280546127fe90615537565b801561284b5780601f106128205761010080835404028352916020019161284b565b820191906000526020600020905b81548152906001019060200180831161282e57829003601f168201915b50505050508484815181106128625761286261551e565b6020026020010151604001819052506002600160008085815481106128895761288961551e565b6000918252602080832090910154600160a060020a0316835282019290925260400190208054839081106128bf576128bf61551e565b906000526020600020016040516128d691906155d6565b9081526020016040518091039020600301548484815181106128fa576128fa61551e565b602002602001015160600181815250506002600160008085815481106129225761292261551e565b6000918252602080832090910154600160a060020a0316835282019290925260400190208054839081106129585761295861551e565b9060005260206000200160405161296f91906155d6565b90815260405190819003602001902060040154845160ff9091169085908590811061299c5761299c61551e565b602002602001015160800190151590811515815250506002600160008085815481106129ca576129ca61551e565b6000918252602080832090910154600160a060020a031683528201929092526040019020805483908110612a0057612a0061551e565b90600052602060002001604051612a1791906155d6565b908152602001604051809103902060050154848481518110612a3b57612a3b61551e565b602002602001015160a0018181525050600260016000808581548110612a6357612a6361551e565b6000918252602080832090910154600160a060020a031683528201929092526040019020805483908110612a9957612a9961551e565b90600052602060002001604051612ab091906155d6565b908152602001604051809103902060060154848481518110612ad457612ad461551e565b602002602001015160c0018181525050600260016000808581548110612afc57612afc61551e565b6000918252602080832090910154600160a060020a031683528201929092526040019020805483908110612b3257612b3261551e565b90600052602060002001604051612b4991906155d6565b90815260200160405180910390206007018054612b6590615537565b80601f0160208091040260200160405190810160405280929190818152602001828054612b9190615537565b8015612bde5780601f10612bb357610100808354040283529160200191612bde565b820191906000526020600020905b815481529060010190602001808311612bc157829003601f168201915b5050505050848481518110612bf557612bf561551e565b602002602001015160e00181905250600260016000808581548110612c1c57612c1c61551e565b6000918252602080832090910154600160a060020a031683528201929092526040019020805483908110612c5257612c5261551e565b90600052602060002001604051612c6991906155d6565b9081526040805191829003602090810183206008018054808302850183019093528284529190830182828015612cc857602002820191906000526020600020905b8154600160a060020a03168152600190910190602001808311612caa575b5050505050848481518110612cdf57612cdf61551e565b60200260200101516101000181905250600260016000808581548110612d0757612d0761551e565b6000918252602080832090910154600160a060020a031683528201929092526040019020805483908110612d3d57612d3d61551e565b90600052602060002001604051612d5491906155d6565b9081526020016040518091039020600901805480602002602001604051908101604052809291908181526020016000905b82821015612e6c5783829060005260206000209060030201604051806060016040529081600082018054612db890615537565b80601f0160208091040260200160405190810160405280929190818152602001828054612de490615537565b8015612e315780601f10612e0657610100808354040283529160200191612e31565b820191906000526020600020905b815481529060010190602001808311612e1457829003601f168201915b5050509183525050600182810154600160a060020a031660208084019190915260029093015460409092019190915291835292019101612d85565b50505050848481518110612e8257612e8261551e565b60200260200101516101200181905250600260016000808581548110612eaa57612eaa61551e565b6000918252602080832090910154600160a060020a031683528201929092526040019020805483908110612ee057612ee061551e565b90600052602060002001604051612ef791906155d6565b9081526020016040518091039020600b0154848481518110612f1b57612f1b61551e565b6020026020010151610160018181525050600260016000808581548110612f4457612f4461551e565b6000918252602080832090910154600160a060020a031683528201929092526040019020805483908110612f7a57612f7a61551e565b90600052602060002001604051612f9191906155d6565b908152604080519182900360209081018320600c018054808302850183019093528284529190830182828015612ff057602002820191906000526020600020905b8154600160a060020a03168152600190910190602001808311612fd2575b50505050508484815181106130075761300761551e565b6020026020010151610180018190525060026001600080858154811061302f5761302f61551e565b6000918252602080832090910154600160a060020a0316835282019290925260400190208054839081106130655761306561551e565b9060005260206000200160405161307c91906155d6565b9081526020016040518091039020600e01548484815181106130a0576130a061551e565b60200260200101516101a00181815250506002600160008085815481106130c9576130c961551e565b6000918252602080832090910154600160a060020a0316835282019290925260400190208054839081106130ff576130ff61551e565b9060005260206000200160405161311691906155d6565b9081526020016040518091039020600f015484848151811061313a5761313a61551e565b60209081029190910101516101c0015282613154816154a7565b9350508080613162906154a7565b915050612414565b5080613175816154a7565b915050612407565b50909392505050565b600081815260086020526040902060020154600160a060020a031633146131c25760405160e560020a62461bcd0281526004016103e490615415565b6000818152600a602052604090206003015460ff16156132275760405160e560020a62461bcd02815260206004820152601a60248201527f4e465420616c726561647920736f6c642f63616e63656c6c656400000000000060448201526064016103e4565b6000818152600860209081526040808320600401805460ff19908116909155600a9092528220600301805490911660011790555b6005548110156107a15781600582815481106132795761327961551e565b906000526020600020015414156132e5576005805461329a906001906155a6565b815481106132aa576132aa61551e565b9060005260206000200154600582815481106132c8576132c861551e565b6000918252602090912001556005805480611ccb57611ccb6155bd565b806132ef816154a7565b91505061325b565b6060600060045467ffffffffffffffff81111561331657613316614a93565b6040519080825280602002602001820160405280156133aa57816020015b61339760405180610140016040528060608152602001600081526020016000600160a060020a0316815260200160608152602001600015158152602001600081526020016000815260200160008152602001600015158152602001606081525090565b8152602001906001900390816133345790505b5090506000805b60055481101561137457600a6000600583815481106133d2576133d261551e565b6000918252602080832090910154835282019290925260400190206003015460ff1661394757600860006005838154811061340f5761340f61551e565b90600052602060002001548152602001908152602001600020600001805461343690615537565b80601f016020809104026020016040519081016040528092919081815260200182805461346290615537565b80156134af5780601f10613484576101008083540402835291602001916134af565b820191906000526020600020905b81548152906001019060200180831161349257829003601f168201915b50505050508383815181106134c6576134c661551e565b60200260200101516000018190525060086000600583815481106134ec576134ec61551e565b906000526020600020015481526020019081526020016000206001015483838151811061351b5761351b61551e565b6020026020010151602001818152505060086000600583815481106135425761354261551e565b9060005260206000200154815260200190815260200160002060020160009054906101000a9004600160a060020a03168383815181106135845761358461551e565b602002602001015160400190600160a060020a03169081600160a060020a03168152505060086000600583815481106135bf576135bf61551e565b9060005260206000200154815260200190815260200160002060030180546135e690615537565b80601f016020809104026020016040519081016040528092919081815260200182805461361290615537565b801561365f5780601f106136345761010080835404028352916020019161365f565b820191906000526020600020905b81548152906001019060200180831161364257829003601f168201915b50505050508383815181106136765761367661551e565b602002602001015160600181905250600860006005838154811061369c5761369c61551e565b9060005260206000200154815260200190815260200160002060040160009054906101000a900460ff168383815181106136d8576136d861551e565b6020026020010151608001901515908115158152505060086000600583815481106137055761370561551e565b90600052602060002001548152602001908152602001600020600501548383815181106137345761373461551e565b602002602001015160a0018181525050600a60006005838154811061375b5761375b61551e565b906000526020600020015481526020019081526020016000206001015483838151811061378a5761378a61551e565b602002602001015160c0018181525050600a6000600583815481106137b1576137b161551e565b90600052602060002001548152602001908152602001600020600201548383815181106137e0576137e061551e565b602002602001015160e0018181525050600a6000600583815481106138075761380761551e565b9060005260206000200154815260200190815260200160002060030160009054906101000a900460ff168383815181106138435761384361551e565b6020026020010151610100019015159081151581525050600a6000600583815481106138715761387161551e565b90600052602060002001548152602001908152602001600020600401805461389890615537565b80601f01602080910402602001604051908101604052809291908181526020018280546138c490615537565b80156139115780601f106138e657610100808354040283529160200191613911565b820191906000526020600020905b8154815290600101906020018083116138f457829003601f168201915b50505050508383815181106139285761392861551e565b602002602001015161012001819052508180613943906154a7565b9250505b80613951816154a7565b9150506133b1565b33600160a060020a03166002846040516139739190615472565b908152604051908190036020019020600a0154600160a060020a031614613a055760405160e560020a62461bcd02815260206004820152602360248201527f596f7520617265206e6f7420746865206f776e6572206f66207468697320766960448201527f64656f000000000000000000000000000000000000000000000000000000000060648201526084016103e4565b81600284604051613a169190615472565b9081526020016040518091039020600f01541015613a9f5760405160e560020a62461bcd02815260206004820152602160248201527f596f752063616e6e6f742067697665206d6f7265207468616e20796f75206f7760448201527f6e0000000000000000000000000000000000000000000000000000000000000060648201526084016103e4565b81600284604051613ab09190615472565b9081526020016040518091039020600f016000828254613ad091906155a6565b9250508190555081600284604051613ae89190615472565b9081526020016040518091039020600e016000828254613b0891906154c2565b909155505033600090815260076020908152604080832060048054825460018101845592865284862090920191909155548352600882529091208451613b509286019061497f565b5060048054600081815260086020908152604080832060058101949094556001909301869055835482528282206002018054600160a060020a03191633179055835482528282208401805460ff1916905592548152208251613bbb926003929092019184019061497f565b5060048054906000613bcc836154a7565b9190505550600283604051613be19190615472565b9081526020016040518091039020600d01600860006001600454613c0591906155a6565b81526020808201929092526040016000908120835460018101855593825291902081549192600602019081908390613c3c90615537565b613c47929190614a03565b50600182810154908201556002808301549082018054600160a060020a031916600160a060020a039092169190911790556003808301805491830191613c8c90615537565b613c97929190614a03565b50600482810154828201805460ff191660ff90921615159190911790556005928301549290910191909155547f8229951b3341d42ffda85185dac3a201947fd9df321aaa542fdf17f78c7877f890600890600090613cf7906001906155a6565b8152602001908152602001600020600301600860006001600454613d1b91906155a6565b8152602001908152602001600020600001600860006001600454613d3f91906155a6565b815260200190815260200160002060010154604051613d60939291906156bf565b60405180910390a1505050565b600082815260086020526040902060020154600160a060020a03163314613da95760405160e560020a62461bcd0281526004016103e490615415565b60008281526008602052604090206004015460ff161515600114613e125760405160e560020a62461bcd02815260206004820152601260248201527f4e4654206973206e6f74206f6e2073656c6c000000000000000000000000000060448201526064016103e4565b60008281526009602052604090206004810154600590910154600160a060020a0390811691161415613e595760405160e560020a62461bcd0281526004016103e49061556f565b60008281526009602052604090206005015460a060020a900460ff1615613ec55760405160e560020a62461bcd02815260206004820152600f60248201527f41756374696f6e206973206f766572000000000000000000000000000000000060448201526064016103e4565b6000828152600960205260409020600301548111613f285760405160e560020a62461bcd02815260206004820152601760248201527f41756374696f6e206973206e6f74206f7665722079657400000000000000000060448201526064016103e4565b60008281526008602090815260408083206004808201805460ff19169055600990935281842060058101805460029384018054600160a060020a0319908116600160a060020a0393841617909155915495830180549092169516948517905501549051919281156108fc029290818181858888f19350505050158015613fb2573d6000803e3d6000fd5b5060008281526009602052604081206002810154600182015560038101839055600501805474ff0000000000000000000000000000000000000000191660a060020a1790555b6006548110156140af5782600682815481106140165761401661551e565b9060005260206000200154141561409d5760068054614037906001906155a6565b815481106140475761404761551e565b9060005260206000200154600682815481106140655761406561551e565b6000918252602090912001556006805480614082576140826155bd565b600190038181906000526020600020016000905590556140af565b806140a7816154a7565b915050613ff8565b5060005b6000838152600860205260409081902090516002916140d1916155d6565b908152604051908190036020019020600d01548110156141d557600083815260086020526040908190209051849160029161410c91906155d6565b9081526020016040518091039020600d01828154811061412e5761412e61551e565b90600052602060002090600602016005015414156141c357600083815260086020526040908190209051339160029161416791906155d6565b9081526020016040518091039020600d0182815481106141895761418961551e565b906000526020600020906006020160020160006101000a815481600160a060020a030219169083600160a060020a031602179055506141d5565b806141cd816154a7565b9150506140b3565b5060005b600083815260086020908152604080832060020154600160a060020a03168352600790915290205481101561434a57600083815260086020908152604080832060020154600160a060020a03168352600790915290208054849190839081106142445761424461551e565b9060005260206000200154141561433857600083815260086020908152604080832060020154600160a060020a0316835260079091529020805461428a906001906155a6565b8154811061429a5761429a61551e565b600091825260208083209091015485835260088252604080842060020154600160a060020a03168452600790925291208054839081106142dc576142dc61551e565b600091825260208083209091019290925584815260088252604080822060020154600160a060020a0316825260079092522080548061431d5761431d6155bd565b6001900381819060005260206000200160009055905561434a565b80614342816154a7565b9150506141d9565b50503360009081526007602090815260408220805460018101825590835291200155565b805160208183018101805160028252928201919093012091528054819061439490615537565b80601f01602080910402602001604051908101604052809291908181526020018280546143c090615537565b801561440d5780601f106143e25761010080835404028352916020019161440d565b820191906000526020600020905b8154815290600101906020018083116143f057829003601f168201915b50505050509080600101805461442290615537565b80601f016020809104026020016040519081016040528092919081815260200182805461444e90615537565b801561449b5780601f106144705761010080835404028352916020019161449b565b820191906000526020600020905b81548152906001019060200180831161447e57829003601f168201915b5050505050908060020180546144b090615537565b80601f01602080910402602001604051908101604052809291908181526020018280546144dc90615537565b80156145295780601f106144fe57610100808354040283529160200191614529565b820191906000526020600020905b81548152906001019060200180831161450c57829003601f168201915b50505060038401546004850154600586015460068701546007880180549798949760ff9094169650919450929161455f90615537565b80601f016020809104026020016040519081016040528092919081815260200182805461458b90615537565b80156145d85780601f106145ad576101008083540402835291602001916145d8565b820191906000526020600020905b8154815290600101906020018083116145bb57829003601f168201915b50505050600a830154600b840154600e850154600f909501549394600160a060020a03909216939092508c565b600080805b60005481101561468c5760005b6001600080848154811061462d5761462d61551e565b6000918252602080832090910154600160a060020a031683528201929092526040019020548110156146795782614663816154a7565b9350508080614671906154a7565b915050614617565b5080614684816154a7565b91505061460a565b50919050565b6002826040516146a29190615472565b90815260405190819003602001902060060180549060006146c2836154a7565b91905055506146f46040518060600160405280606081526020016000600160a060020a03168152602001600081525090565b8181523360208201523460408083019190915251600290614716908590615472565b9081526040516020918190038201902060090180546001810182556000918252908290208351805185946003909402909201926147589284929091019061497f565b506020820151600182018054600160a060020a031916600160a060020a03909216919091179055604091820151600291820155905134919061479b908690615472565b9081526020016040518091039020600b0160008282546147bb91906154c2565b90915550506040516002906147d1908590615472565b908152604051908190036020018120600a0154600160a060020a0316906108fc90606490600290614803908890615472565b9081526020016040518091039020600f01543461482091906154da565b61482a91906154f9565b6040518115909202916000818181858888f19350505050158015614852573d6000803e3d6000fd5b5060005b6002846040516148669190615472565b908152604051908190036020019020600d0154811015614979576002846040516148909190615472565b9081526020016040518091039020600d0181815481106148b2576148b261551e565b906000526020600020906006020160020160009054906101000a9004600160a060020a0316600160a060020a03166108fc60646002876040516148f59190615472565b9081526020016040518091039020600d0184815481106149175761491761551e565b9060005260206000209060060201600101543461493491906154da565b61493e91906154f9565b6040518115909202916000818181858888f19350505050158015614966573d6000803e3d6000fd5b5080614971816154a7565b915050614856565b50505050565b82805461498b90615537565b90600052602060002090601f0160209004810192826149ad57600085556149f3565b82601f106149c657805160ff19168380011785556149f3565b828001600101855582156149f3579182015b828111156149f35782518255916020019190600101906149d8565b506149ff929150614a7e565b5090565b828054614a0f90615537565b90600052602060002090601f016020900481019282614a3157600085556149f3565b82601f10614a4257805485556149f3565b828001600101855582156149f357600052602060002091601f016020900482015b828111156149f3578254825591600101919060010190614a63565b5b808211156149ff5760008155600101614a7f565b60e060020a634e487b7102600052604160045260246000fd5b600082601f830112614abd57600080fd5b813567ffffffffffffffff80821115614ad857614ad8614a93565b604051601f8301601f19908116603f01168101908282118183101715614b0057614b00614a93565b81604052838152866020858801011115614b1957600080fd5b836020870160208301376000602085830101528094505050505092915050565b60008060008060808587031215614b4f57600080fd5b843593506020850135925060408501359150606085013567ffffffffffffffff811115614b7b57600080fd5b614b8787828801614aac565b91505092959194509250565b600060208284031215614ba557600080fd5b813567ffffffffffffffff811115614bbc57600080fd5b614bc884828501614aac565b949350505050565b600080600080600060a08688031215614be857600080fd5b853567ffffffffffffffff80821115614c0057600080fd5b614c0c89838a01614aac565b96506020880135915080821115614c2257600080fd5b614c2e89838a01614aac565b95506040880135915080821115614c4457600080fd5b614c5089838a01614aac565b94506060880135915080821115614c6657600080fd5b50614c7388828901614aac565b95989497509295608001359392505050565b60005b83811015614ca0578181015183820152602001614c88565b838111156149795750506000910152565b60008151808452614cc9816020860160208601614c85565b601f01601f19169290920160200192915050565b60208082528251828201819052600091906040908185019080840286018301878501865b83811015614e0857603f1989840301855281516101a08151818652614d2882870182614cb1565b915050888201518986015287820151614d4b89870182600160a060020a03169052565b5060608083015186830382880152614d638382614cb1565b92505050608080830151614d7a8288018215159052565b505060a0828101519086015260c0808301519086015260e08083015190860152610100808301519086015261012080830151600160a060020a03908116918701919091526101408084015190911690860152610160808301511515908601526101809182015185820392860192909252614df48183614cb1565b968901969450505090860190600101614d01565b509098975050505050505050565b60008060408385031215614e2957600080fd5b823567ffffffffffffffff80821115614e4157600080fd5b614e4d86838701614aac565b93506020850135915080821115614e6357600080fd5b50614e7085828601614aac565b9150509250929050565b8035600160a060020a0381168114614e9157600080fd5b919050565b600060208284031215614ea857600080fd5b614eb182614e7a565b9392505050565b60208082528251828201819052600091906040908185019080840286018301878501865b83811015614e0857603f19898403018552815160c08151818652614f0282870182614cb1565b9150508882015189860152600160a060020a0388830151168886015260608083015186830382880152614f358382614cb1565b60808581015115159089015260a09485015194909701939093525050509386019390860190600101614edc565b60008060408385031215614f7557600080fd5b50508035926020909101359150565b600060208284031215614f9657600080fd5b5035919050565b60008060408385031215614fb057600080fd5b614fb983614e7a565b946020939093013593505050565b602081526000614eb16020830184614cb1565b600081518084526020808501945080840160005b83811015615013578151600160a060020a031687529582019590820190600101614fee565b509495945050505050565b600081518084526020808501808196508284028101915082860160005b8581101561508e57828403895281516060815181875261505d82880182614cb1565b83890151600160a060020a0316888a015260409384015193909701929092525050978401979084019060010161503b565b5091979650505050505050565b60208082528251828201819052600091906040908185019080840286018301878501865b83811015614e0857603f1989840301855281516101e081518186526150e682870182614cb1565b915050888201518582038a8701526150fe8282614cb1565b91505087820151858203898701526151168282614cb1565b91505060608083015181870152506080808301516151378288018215159052565b505060a0828101519086015260c0808301519086015260e080830151868303828801526151648382614cb1565b9250505061010080830151868303828801526151808382614fda565b92505050610120808301518683038288015261519c838261501e565b92505050610140808301516151bb82880182600160a060020a03169052565b5050610160828101519086015261018080830151868303828801526151e08382614fda565b6101a085810151908901526101c094850151949097019390935250505093860193908601906001016150bf565b60208082528251828201819052600091906040908185019080840286018301878501865b83811015614e0857603f198984030185528151610140815181865261525882870182614cb1565b91505088820151898601528782015161527b89870182600160a060020a03169052565b50606080830151868303828801526152938382614cb1565b925050506080808301516152aa8288018215159052565b505060a0828101519086015260c0808301519086015260e080830151908601526101008083015115159086015261012091820151858203928601929092526152f28183614cb1565b968901969450505090860190600101615231565b60008060006060848603121561531b57600080fd5b833567ffffffffffffffff8082111561533357600080fd5b61533f87838801614aac565b945060208601359350604086013591508082111561535c57600080fd5b5061536986828701614aac565b9150509250925092565b6101808152600061538861018083018f614cb1565b828103602084015261539a818f614cb1565b905082810360408401526153ae818e614cb1565b90508b60608401528a151560808401528960a08401528860c084015282810360e08401526153dc8189614cb1565b915050600160a060020a0386166101008301528461012083015283610140830152826101608301529d9c50505050505050505050505050565b60208082526021908201527f596f7520617265206e6f7420746865206f776e6572206f662074686973204e4660408201527f5400000000000000000000000000000000000000000000000000000000000000606082015260800190565b60008251615484818460208701614c85565b9190910192915050565b60e060020a634e487b7102600052601160045260246000fd5b60006000198214156154bb576154bb61548e565b5060010190565b600082198211156154d5576154d561548e565b500190565b60008160001904831182151516156154f4576154f461548e565b500290565b6000826155195760e060020a634e487b7102600052601260045260246000fd5b500490565b60e060020a634e487b7102600052603260045260246000fd5b60028104600182168061554b57607f821691505b6020821081141561468c5760e060020a634e487b7102600052602260045260246000fd5b6020808252601d908201527f596f752061726520746865206f776e6572206f662074686973204e4654000000604082015260600190565b6000828210156155b8576155b861548e565b500390565b60e060020a634e487b7102600052603160045260246000fd5b60008083546155e481615537565b600182811680156155fc576001811461560d5761563c565b60ff1984168752828701945061563c565b8760005260208060002060005b858110156156335781548a82015290840190820161561a565b50505082870194505b50929695505050505050565b6000815461565581615537565b8085526020600183811680156156725760018114615686576156b4565b60ff198516888401526040880195506156b4565b866000528260002060005b858110156156ac5781548a8201860152908301908401615691565b890184019650505b505050505092915050565b6060815260006156d26060830186615648565b82810360208401526156e48186615648565b91505082604083015294935050505056fea26469706673582212209bd591f8d39b32f7919b4d20c9cbf992747588bf8d770b05402f7e34f0df9d7f64736f6c63430008090033",
  "immutableReferences": {},
  "source": "// SPDX-License-Identifier: UNLICENSED\r\npragma solidity ^0.8.9;\r\n\r\n// Uncomment this line to use console.log\r\n// import \"hardhat/console.sol\";\r\n\r\ncontract Chingari {\r\n    struct video{\r\n        string videoLink;\r\n        string videoName;\r\n        string videoDescription;\r\n        uint256 videoPrice;\r\n        bool listed;\r\n        uint256 videoLikes;\r\n        uint256 videoComments;\r\n        string videoCategory;\r\n        address[] likers;\r\n        comment[] comments;\r\n        address owner;\r\n        uint256 revenue;\r\n        address[] buyers;\r\n        nftdet[] nftarr;\r\n        uint256 royaltyPercent;\r\n        uint256 ownPercent;\r\n    }\r\n    event success(string, string,uint);\r\n    struct videonomap{\r\n        string videoLink;\r\n        string videoName;\r\n        string videoDescription;\r\n        uint256 videoPrice;\r\n        bool listed;\r\n        uint256 videoLikes;\r\n        uint256 videoComments;\r\n        string videoCategory;\r\n        address[] likers;\r\n        comment[] comments;\r\n        address owner;\r\n        uint256 revenue;\r\n        address[] buyers;\r\n        uint256 royaltyPercent;\r\n        uint256 ownPercent;\r\n    }\r\n    struct comment{\r\n        string line;\r\n        address commenter;\r\n        uint256 tip;\r\n    }\r\n    address[] creators;\r\n    mapping (address => string[]) public vList;\r\n    mapping(string => video) public linktoOwner;\r\n    \r\n    mapping(string=>bool) linkexist;\r\n\r\n    //NFT vars\r\n    struct nftdet{\r\n        string videoLink;\r\n        uint256 royaltyPercent;\r\n        address owner;\r\n        string name;\r\n        bool onsell;\r\n        uint256 id;\r\n    }\r\n\r\n    struct alisting{\r\n        uint256 nftId;\r\n        uint256 sprice;\r\n        uint256 cprice;\r\n        uint256 date;\r\n        address powner;\r\n        address cowner;\r\n        bool corrupt;\r\n        string date2;\r\n    }\r\n    struct dlisting{\r\n        uint256 nftId;\r\n        uint256 price;\r\n        uint256 date;\r\n        bool corrupt;\r\n        string date2;\r\n    }\r\n    struct blisting{\r\n        string videoLink;\r\n        uint256 royaltyPercent;\r\n        address owner;\r\n        string name;\r\n        bool onsell;\r\n        uint256 id;\r\n        uint256 price;\r\n        uint256 date;\r\n        bool corrupt;\r\n        string date2;\r\n    }\r\n    struct auclisting{\r\n        string videoLink;\r\n        uint256 royaltyPercent;\r\n        address owner;\r\n        string name;\r\n        bool onsell;\r\n        uint256 nftId;\r\n        uint256 sprice;\r\n        uint256 cprice;\r\n        uint256 date;\r\n        address powner;\r\n        address cowner;\r\n        bool corrupt;\r\n        string date2;\r\n    }\r\n    uint256 nftCount=0;\r\n    uint256[] darray;\r\n    uint256[] aarray;\r\n    mapping(address => uint256[]) nft;\r\n    mapping(uint256 => nftdet) nftDetails; \r\n    mapping(uint256 => alisting) nftaList;\r\n    mapping(uint256 => dlisting) nftdList;\r\n\r\n\r\n    // function ownDisplay(address _user)public view returns(videonomap[] memory){\r\n    //     videonomap[] memory temp=new videonomap[](vList[_user].length);\r\n        \r\n    //     for(uint256 i=0;i<vList[_user].length;i++){\r\n    //         temp[i].owner = linktoOwner[vList[_user][i]].owner;\r\n    //         temp[i].videoLink = linktoOwner[vList[_user][i]].videoLink;\r\n    //         temp[i].videoName = linktoOwner[vList[_user][i]].videoName;\r\n    //         temp[i].videoDescription = linktoOwner[vList[_user][i]].videoDescription;\r\n    //         temp[i].videoPrice = linktoOwner[vList[_user][i]].videoPrice;\r\n    //         temp[i].listed = linktoOwner[vList[_user][i]].listed;\r\n    //         temp[i].videoLikes = linktoOwner[vList[_user][i]].videoLikes;\r\n    //         temp[i].videoComments = linktoOwner[vList[_user][i]].videoComments;\r\n    //         temp[i].videoCategory = linktoOwner[vList[_user][i]].videoCategory;\r\n    //         temp[i].likers = linktoOwner[vList[_user][i]].likers;\r\n    //         temp[i].comments = linktoOwner[vList[_user][i]].comments;\r\n    //         temp[i].revenue = linktoOwner[vList[_user][i]].revenue;\r\n    //         temp[i].buyers = linktoOwner[vList[_user][i]].buyers;\r\n    //         temp[i].royaltyPercent = linktoOwner[vList[_user][i]].royaltyPercent;\r\n    //         temp[i].ownPercent = linktoOwner[vList[_user][i]].ownPercent;\r\n\r\n    //     }\r\n    //     return temp;\r\n    // }\r\n    function allSize()public view returns(uint256){\r\n        uint256 k=0;\r\n        for(uint256 i=0;i<creators.length;i++){\r\n            for(uint256 j=0;j<vList[creators[i]].length;j++){\r\n                k++;\r\n            }\r\n        }\r\n        return k;\r\n    }\r\n \r\n    function allDisplay()public view returns(videonomap[] memory){\r\n        uint256 siz=allSize();\r\n        videonomap[] memory temp=new videonomap[](siz);\r\n        uint256 k=0;\r\n        for(uint256 i=0;i<creators.length;i++){\r\n            for(uint256 j=0;j<vList[creators[i]].length;j++){\r\n                temp[k].owner = linktoOwner[vList[creators[i]][j]].owner;\r\n                temp[k].videoLink = linktoOwner[vList[creators[i]][j]].videoLink;\r\n                temp[k].videoName = linktoOwner[vList[creators[i]][j]].videoName;\r\n                temp[k].videoDescription = linktoOwner[vList[creators[i]][j]].videoDescription;\r\n                temp[k].videoPrice = linktoOwner[vList[creators[i]][j]].videoPrice;\r\n                temp[k].listed = linktoOwner[vList[creators[i]][j]].listed;\r\n                temp[k].videoLikes = linktoOwner[vList[creators[i]][j]].videoLikes;\r\n                temp[k].videoComments = linktoOwner[vList[creators[i]][j]].videoComments;\r\n                temp[k].videoCategory = linktoOwner[vList[creators[i]][j]].videoCategory;\r\n                temp[k].likers = linktoOwner[vList[creators[i]][j]].likers;\r\n                temp[k].comments = linktoOwner[vList[creators[i]][j]].comments;\r\n                temp[k].revenue = linktoOwner[vList[creators[i]][j]].revenue;\r\n                temp[k].buyers = linktoOwner[vList[creators[i]][j]].buyers;\r\n                temp[k].royaltyPercent = linktoOwner[vList[creators[i]][j]].royaltyPercent;\r\n                temp[k].ownPercent = linktoOwner[vList[creators[i]][j]].ownPercent;\r\n                k++;\r\n            }\r\n        }\r\n        return temp;\r\n    }\r\n  \r\n    function create(string memory link,string memory _name,string memory _desc,string memory _cate,uint256 val) public{\r\n        \r\n       require(linkexist[link]==false,\"NFT already created for this video\");\r\n        bool already=false;\r\n        for(uint256 i=0;i<creators.length;i++){\r\n            if(creators[i]==msg.sender){\r\n                already=true;\r\n                break;\r\n            }\r\n        }\r\n        if(!already){\r\n            creators.push(msg.sender);\r\n        }\r\n        vList[msg.sender].push(link);\r\n        linktoOwner[link].owner = msg.sender;\r\n        linktoOwner[link].videoLink = link;\r\n        linktoOwner[link].videoName = _name;\r\n        linktoOwner[link].videoDescription = _desc;\r\n        linktoOwner[link].videoCategory = _cate;\r\n        linktoOwner[link].videoPrice = val;\r\n        linktoOwner[link].videoLikes = 0;\r\n        linktoOwner[link].listed=false;\r\n        linktoOwner[link].videoComments = 0;\r\n        linktoOwner[link].revenue = 0;  \r\n        linktoOwner[link].ownPercent = 100;\r\n        linktoOwner[link].royaltyPercent = 0;\r\n        linkexist[link]=true;\r\n    }\r\n    function like(string memory link) public payable{\r\n        linktoOwner[link].videoLikes++;\r\n        linktoOwner[link].likers.push(msg.sender);\r\n        linktoOwner[link].revenue += msg.value;\r\n        payable(linktoOwner[link].owner).transfer(msg.value*linktoOwner[link].ownPercent/100);\r\n        for(uint256 i=0;i<linktoOwner[link].nftarr.length;i++){\r\n            payable(linktoOwner[link].nftarr[i].owner).transfer(msg.value*linktoOwner[link].nftarr[i].royaltyPercent/100);\r\n\r\n        }\r\n    }\r\n    function newcomment(string memory link,string memory _comment) public{\r\n        linktoOwner[link].videoComments++;\r\n        comment memory nw;\r\n        nw.line = _comment;\r\n        nw.commenter = msg.sender;\r\n        nw.tip = 0;\r\n        linktoOwner[link].comments.push(nw);\r\n    }\r\n    function commentTip(string memory link,string memory _comment) public payable{\r\n        linktoOwner[link].videoComments++;\r\n        comment memory nw;\r\n        nw.line = _comment;\r\n        nw.commenter = msg.sender;\r\n        nw.tip = msg.value;\r\n        linktoOwner[link].comments.push(nw);\r\n        linktoOwner[link].revenue += msg.value;\r\n        payable(linktoOwner[link].owner).transfer(msg.value*linktoOwner[link].ownPercent/100);\r\n        for(uint256 i=0;i<linktoOwner[link].nftarr.length;i++){\r\n            payable(linktoOwner[link].nftarr[i].owner).transfer(msg.value*linktoOwner[link].nftarr[i].royaltyPercent/100);\r\n        }\r\n    }\r\n\r\n    \r\n    //nft creation\r\n    function alist(uint256 id,uint256 price,uint256 date,string memory date2) public{\r\n        require(nftDetails[id].owner==msg.sender,\"You are not the owner of this NFT\");\r\n        require(nftDetails[id].onsell==false,\"NFT already on sell\");\r\n        nftDetails[id].onsell=true;\r\n        nftaList[id].nftId=id;\r\n        nftaList[id].sprice=price;\r\n        nftaList[id].cprice=price;\r\n        nftaList[id].date=date;\r\n        nftaList[id].powner=msg.sender;\r\n        nftaList[id].cowner=msg.sender;\r\n        nftaList[id].corrupt=false;\r\n        nftaList[id].date2=date2;\r\n        aarray.push(id);\r\n    }\r\n    function auctionBid(uint256 id,uint256 date) public payable{\r\n        require(nftaList[id].corrupt==false,\"NFT is corrupted\");\r\n        require(nftaList[id].sprice<msg.value,\"Bid more than starting price\");\r\n        require(nftaList[id].cprice<msg.value,\"Bid more than current price\");\r\n        require(nftaList[id].date>=date,\"You are late\");\r\n        require(nftaList[id].powner!=msg.sender,\"You are the owner of this NFT\");\r\n        if(nftaList[id].cowner!=nftaList[id].powner){\r\n            payable(nftaList[id].cowner).transfer(nftaList[id].cprice);\r\n        }\r\n        nftaList[id].cprice=msg.value;\r\n        nftaList[id].cowner=msg.sender;\r\n    }\r\n    function ashow() public view returns(auclisting[] memory){\r\n        auclisting[] memory temp=new auclisting[](aarray.length);\r\n        uint256 k=0;\r\n        for(uint i=0;i<aarray.length;i++){\r\n            if(nftaList[aarray[i]].corrupt==false){\r\n                temp[k].videoLink=nftDetails[aarray[i]].videoLink;\r\n                temp[k].royaltyPercent=nftDetails[aarray[i]].royaltyPercent;\r\n                temp[k].owner=nftDetails[aarray[i]].owner;\r\n                temp[k].name=nftDetails[aarray[i]].name;\r\n                temp[k].onsell=nftDetails[aarray[i]].onsell;\r\n                temp[k].nftId=nftaList[aarray[i]].nftId;\r\n                temp[k].sprice=nftaList[aarray[i]].sprice;\r\n                temp[k].cprice=nftaList[aarray[i]].cprice;\r\n                temp[k].date=nftaList[aarray[i]].date;\r\n                temp[k].powner=nftaList[aarray[i]].powner;\r\n                temp[k].cowner=nftaList[aarray[i]].cowner;\r\n                temp[k].corrupt=nftaList[aarray[i]].corrupt;\r\n                temp[k].date2=nftaList[aarray[i]].date2;\r\n                k++;\r\n            }\r\n        }\r\n        return temp;\r\n    }\r\n    // function aownshow(address user)public view returns(auclisting[] memory){\r\n    //     auclisting[] memory temp=new auclisting[](nftCount);\r\n    //     uint256 k=0;\r\n    //     for(uint256 i=0;i<nft[user].length;i++){\r\n    //         for(uint256 j=0;j<aarray.length;j++){\r\n    //             if(nft[user][i]==aarray[j] && nftaList[aarray[j]].corrupt==false){\r\n    //                 temp[k].videoLink=nftDetails[nft[user][i]].videoLink;\r\n    //                 temp[k].royaltyPercent=nftDetails[nft[user][i]].royaltyPercent;\r\n    //                 temp[k].owner=nftDetails[nft[user][i]].owner;\r\n    //                 temp[k].name=nftDetails[nft[user][i]].name;\r\n    //                 temp[k].onsell=nftDetails[nft[user][i]].onsell;\r\n    //                 temp[k].nftId=nftDetails[nft[user][i]].id;\r\n    //                 temp[k].sprice=nftaList[nft[user][i]].sprice;\r\n    //                 temp[k].cprice=nftaList[nft[user][i]].cprice;\r\n    //                 temp[k].cowner=nftaList[nft[user][i]].cowner;\r\n    //                 temp[k].powner=nftaList[nft[user][i]].powner;\r\n    //                 temp[k].date=nftaList[nft[user][i]].date;\r\n    //                 temp[k].corrupt=nftaList[nft[user][i]].corrupt;\r\n    //                 temp[k].date2=nftaList[nft[user][i]].date2;\r\n    //                 k++;\r\n    //                 break;\r\n    //             }\r\n                \r\n    //         }\r\n    //     }\r\n    //     return temp;\r\n    // }\r\n    function acancel(uint256 id) public{\r\n        require(nftDetails[id].owner==msg.sender,\"You are not the owner of this NFT\");\r\n        require(nftDetails[id].onsell==true,\"NFT is not on sell\");\r\n        if(nftaList[id].cowner!=nftaList[id].powner){\r\n            payable(nftaList[id].cowner).transfer(nftaList[id].cprice);\r\n        }\r\n        nftDetails[id].onsell=false;\r\n        nftaList[id].corrupt=true;\r\n        for(uint256 i=0;i<aarray.length;i++){\r\n            if(aarray[i]==id){\r\n                aarray[i]=aarray[aarray.length-1];\r\n                aarray.pop();\r\n                break;\r\n            }\r\n        }      \r\n    }\r\n    function aaccept(uint256 id,uint256 date) public{\r\n        require(nftDetails[id].owner==msg.sender,\"You are not the owner of this NFT\");\r\n        require(nftDetails[id].onsell==true,\"NFT is not on sell\");\r\n        require(nftaList[id].cowner!=nftaList[id].powner,\"You are the owner of this NFT\");\r\n        require(nftaList[id].corrupt==false,\"Auction is over\");\r\n        require(nftaList[id].date<date,\"Auction is not over yet\");\r\n        nftDetails[id].onsell=false;\r\n        nftDetails[id].owner=nftaList[id].cowner;\r\n        nftaList[id].powner=nftaList[id].cowner;\r\n        payable(nftaList[id].powner).transfer(nftaList[id].cprice);\r\n        nftaList[id].sprice=nftaList[id].cprice;\r\n        nftaList[id].date=date;\r\n        nftaList[id].corrupt=true;\r\n        for(uint256 i=0;i<aarray.length;i++){\r\n            if(aarray[i]==id){\r\n                aarray[i]=aarray[aarray.length-1];\r\n                aarray.pop();\r\n                break;\r\n            }\r\n        }\r\n        for(uint256 i=0;i<linktoOwner[nftDetails[id].videoLink].nftarr.length;i++){\r\n            if(linktoOwner[nftDetails[id].videoLink].nftarr[i].id==id){\r\n                linktoOwner[nftDetails[id].videoLink].nftarr[i].owner=msg.sender;\r\n                break;\r\n            }\r\n        }\r\n        for(uint256 i=0;i<nft[nftDetails[id].owner].length;i++){\r\n            if(nft[nftDetails[id].owner][i]==id){\r\n                nft[nftDetails[id].owner][i]=nft[nftDetails[id].owner][nft[nftDetails[id].owner].length-1];\r\n                nft[nftDetails[id].owner].pop();\r\n                break;\r\n            }\r\n        }\r\n        nft[msg.sender].push(id);\r\n    }\r\n    function nftCreate(string memory link,uint256 percent,string memory name) public{\r\n       require(linktoOwner[link].owner==msg.sender,\"You are not the owner of this video\");\r\n       require(linktoOwner[link].ownPercent>=percent,\"You cannot give more than you own\");\r\n            linktoOwner[link].ownPercent-=percent;\r\n            linktoOwner[link].royaltyPercent+=percent;\r\n            nft[msg.sender].push(nftCount);\r\n            nftDetails[nftCount].videoLink = link;\r\n            nftDetails[nftCount].id = nftCount;\r\n            nftDetails[nftCount].royaltyPercent = percent;\r\n            nftDetails[nftCount].owner = msg.sender;\r\n            nftDetails[nftCount].onsell = false;\r\n            nftDetails[nftCount].name = name;\r\n            nftCount++;\r\n            linktoOwner[link].nftarr.push(nftDetails[nftCount-1]);\r\n            emit success(nftDetails[nftCount-1].name, nftDetails[nftCount-1].videoLink, nftDetails[nftCount-1].royaltyPercent);\r\n    }\r\n       function nftown(address user) public view returns(nftdet[] memory){\r\n        nftdet[] memory temp = new nftdet[](nft[user].length);\r\n        for(uint i=0;i<nft[user].length;i++){\r\n            if(nftDetails[nft[user][i]].onsell==false){\r\n                temp[i]=nftDetails[nft[user][i]];\r\n            }\r\n        }\r\n        return temp;\r\n    }\r\n    // function downshow(address user)public view returns(blisting[] memory){\r\n    //     blisting[] memory temp = new blisting[](nftCount);\r\n    //     uint256 k=0;\r\n    //     for(uint256 i=0;i<nft[user].length;i++){\r\n    //         for(uint256 j=0;j<darray.length;j++){\r\n    //             if(nft[user][i]==darray[j] && nftdList[darray[j]].corrupt==false){\r\n    //                 temp[k].videoLink=nftDetails[nft[user][i]].videoLink;\r\n    //                 temp[k].royaltyPercent=nftDetails[nft[user][i]].royaltyPercent;\r\n    //                 temp[k].owner=nftDetails[nft[user][i]].owner;\r\n    //                 temp[k].name=nftDetails[nft[user][i]].name;\r\n    //                 temp[k].onsell=nftDetails[nft[user][i]].onsell;\r\n    //                 temp[k].id=nftDetails[nft[user][i]].id;\r\n    //                 temp[k].price=nftdList[nft[user][i]].price;\r\n    //                 temp[k].date=nftdList[nft[user][i]].date;\r\n    //                 temp[k].corrupt=nftdList[nft[user][i]].corrupt;\r\n    //                 temp[k].date2=nftdList[nft[user][i]].date2;\r\n    //                 k++;\r\n    //                 break;\r\n    //             }\r\n    //         }\r\n    //     }\r\n    //     return temp;\r\n    // }\r\n    function dshow()public view returns(blisting[] memory){\r\n        blisting[] memory temp = new blisting[](nftCount);\r\n        uint256 k=0;\r\n        for(uint256 i=0;i<darray.length;i++){\r\n            if(nftdList[darray[i]].corrupt==false){\r\n                temp[k].videoLink=nftDetails[darray[i]].videoLink;\r\n                temp[k].royaltyPercent=nftDetails[darray[i]].royaltyPercent;\r\n                temp[k].owner=nftDetails[darray[i]].owner;\r\n                temp[k].name=nftDetails[darray[i]].name;\r\n                temp[k].onsell=nftDetails[darray[i]].onsell;\r\n                temp[k].id=nftDetails[darray[i]].id;\r\n                temp[k].price=nftdList[darray[i]].price;\r\n                temp[k].date=nftdList[darray[i]].date;\r\n                temp[k].corrupt=nftdList[darray[i]].corrupt;\r\n                temp[k].date2=nftdList[darray[i]].date2;\r\n                k++;\r\n            }\r\n        }\r\n        return temp;\r\n    }\r\n \r\n    function dlist(uint256 id,uint256 price,uint256 date,string memory date2)public {\r\n        require(nftDetails[id].owner==msg.sender,\"You are not the owner of this NFT\");\r\n        nftdList[id].nftId=id;\r\n        nftdList[id].price=price;\r\n        nftdList[id].date=date;\r\n        nftdList[id].corrupt=false;\r\n        nftdList[id].date2=date2;\r\n        nftDetails[id].onsell=true;\r\n        darray.push(id);\r\n    }\r\n    function dbuy(uint256 id,uint256 date)public payable{\r\n        require(msg.sender!=nftDetails[id].owner,\"You are the owner of this NFT\");   \r\n        require(nftdList[id].price<=msg.value,\"Not the mentioned price\");\r\n        require(nftdList[id].date>=date,\"You are late\");\r\n        require(nftdList[id].corrupt==false,\"NFT already sold\");\r\n        nftdList[id].corrupt=true;\r\n        payable(nftDetails[id].owner).transfer(msg.value);\r\n        for(uint256 i=0;i<linktoOwner[nftDetails[id].videoLink].nftarr.length;i++){\r\n            if(linktoOwner[nftDetails[id].videoLink].nftarr[i].id==id){\r\n                linktoOwner[nftDetails[id].videoLink].nftarr[i].owner=msg.sender;\r\n                break;\r\n            }\r\n        }\r\n        for(uint256 i=0;i<nft[nftDetails[id].owner].length;i++){\r\n            if(nft[nftDetails[id].owner][i]==id){\r\n                nft[nftDetails[id].owner][i]=nft[nftDetails[id].owner][nft[nftDetails[id].owner].length-1];\r\n                nft[nftDetails[id].owner].pop();\r\n                break;\r\n            }\r\n        }\r\n        \r\n        nftDetails[id].owner=msg.sender;\r\n        nftDetails[id].onsell=false;\r\n        nft[msg.sender].push(id);\r\n        for(uint256 i=0;i<darray.length;i++){\r\n            if(darray[i]==id){\r\n                darray[i]=darray[darray.length-1];\r\n                darray.pop();\r\n                break;\r\n            }\r\n        }\r\n    }\r\n    function dcancel(uint256 id)public {\r\n        require(msg.sender==nftDetails[id].owner,\"You are not the owner of this NFT\");\r\n        require(nftdList[id].corrupt==false,\"NFT already sold/cancelled\");\r\n        nftDetails[id].onsell=false;\r\n        nftdList[id].corrupt=true;\r\n         for(uint256 i=0;i<darray.length;i++){\r\n            if(darray[i]==id){\r\n                darray[i]=darray[darray.length-1];\r\n                darray.pop();\r\n                break;\r\n            }\r\n        }        \r\n    }\r\n}\r\n",
  "sourcePath": "D:\\codes\\App Avengers\\join3\\truffle\\contracts\\Chingari.sol",
  "compiler": {
    "name": "solc",
    "version": "0.8.9+commit.e5eed63a.Emscripten.clang"
  },
  "schemaVersion": "3.4.4",
  "updatedAt": "2023-08-14T13:24:07.856Z",
  "devdoc": {
    "kind": "dev",
    "methods": {},
    "version": 1
  },
  "userdoc": {
    "kind": "user",
    "methods": {},
    "version": 1
  }
}