{
  "_format": "hh-sol-artifact-1",
  "contractName": "Chingari",
  "sourceName": "contracts/Chingari.sol",
  "abi": [
    {
      "inputs": [],
      "name": "allDisplay",
      "outputs": [
        {
          "components": [
            {
              "internalType": "string",
              "name": "videoLink",
              "type": "string"
            },
            {
              "internalType": "string",
              "name": "videoName",
              "type": "string"
            },
            {
              "internalType": "string",
              "name": "videoDescription",
              "type": "string"
            },
            {
              "internalType": "uint256",
              "name": "videoPrice",
              "type": "uint256"
            },
            {
              "internalType": "bool",
              "name": "listed",
              "type": "bool"
            },
            {
              "internalType": "uint256",
              "name": "videoLikes",
              "type": "uint256"
            },
            {
              "internalType": "uint256",
              "name": "videoComments",
              "type": "uint256"
            },
            {
              "internalType": "string",
              "name": "videoCategory",
              "type": "string"
            },
            {
              "internalType": "address[]",
              "name": "likers",
              "type": "address[]"
            },
            {
              "components": [
                {
                  "internalType": "string",
                  "name": "line",
                  "type": "string"
                },
                {
                  "internalType": "address",
                  "name": "commenter",
                  "type": "address"
                },
                {
                  "internalType": "uint256",
                  "name": "tip",
                  "type": "uint256"
                }
              ],
              "internalType": "struct Chingari.comment[]",
              "name": "comments",
              "type": "tuple[]"
            },
            {
              "internalType": "address",
              "name": "owner",
              "type": "address"
            },
            {
              "internalType": "uint256",
              "name": "revenue",
              "type": "uint256"
            },
            {
              "internalType": "address[]",
              "name": "buyers",
              "type": "address[]"
            },
            {
              "internalType": "uint256",
              "name": "royaltyPercent",
              "type": "uint256"
            },
            {
              "internalType": "uint256",
              "name": "ownPercent",
              "type": "uint256"
            }
          ],
          "internalType": "struct Chingari.videonomap[]",
          "name": "",
          "type": "tuple[]"
        }
      ],
      "stateMutability": "view",
      "type": "function"
    },
    {
      "inputs": [],
      "name": "allSize",
      "outputs": [
        {
          "internalType": "uint256",
          "name": "",
          "type": "uint256"
        }
      ],
      "stateMutability": "view",
      "type": "function"
    },
    {
      "inputs": [
        {
          "internalType": "string",
          "name": "link",
          "type": "string"
        },
        {
          "internalType": "string",
          "name": "_comment",
          "type": "string"
        }
      ],
      "name": "commentTip",
      "outputs": [],
      "stateMutability": "payable",
      "type": "function"
    },
    {
      "inputs": [
        {
          "internalType": "string",
          "name": "link",
          "type": "string"
        },
        {
          "internalType": "string",
          "name": "_name",
          "type": "string"
        },
        {
          "internalType": "string",
          "name": "_desc",
          "type": "string"
        },
        {
          "internalType": "string",
          "name": "_cate",
          "type": "string"
        },
        {
          "internalType": "uint256",
          "name": "val",
          "type": "uint256"
        }
      ],
      "name": "create",
      "outputs": [],
      "stateMutability": "nonpayable",
      "type": "function"
    },
    {
      "inputs": [
        {
          "internalType": "string",
          "name": "link",
          "type": "string"
        }
      ],
      "name": "like",
      "outputs": [],
      "stateMutability": "payable",
      "type": "function"
    },
    {
      "inputs": [
        {
          "internalType": "string",
          "name": "",
          "type": "string"
        }
      ],
      "name": "linktoOwner",
      "outputs": [
        {
          "internalType": "string",
          "name": "videoLink",
          "type": "string"
        },
        {
          "internalType": "string",
          "name": "videoName",
          "type": "string"
        },
        {
          "internalType": "string",
          "name": "videoDescription",
          "type": "string"
        },
        {
          "internalType": "uint256",
          "name": "videoPrice",
          "type": "uint256"
        },
        {
          "internalType": "bool",
          "name": "listed",
          "type": "bool"
        },
        {
          "internalType": "uint256",
          "name": "videoLikes",
          "type": "uint256"
        },
        {
          "internalType": "uint256",
          "name": "videoComments",
          "type": "uint256"
        },
        {
          "internalType": "string",
          "name": "videoCategory",
          "type": "string"
        },
        {
          "internalType": "address",
          "name": "owner",
          "type": "address"
        },
        {
          "internalType": "uint256",
          "name": "revenue",
          "type": "uint256"
        },
        {
          "internalType": "uint256",
          "name": "royaltyPercent",
          "type": "uint256"
        },
        {
          "internalType": "uint256",
          "name": "ownPercent",
          "type": "uint256"
        }
      ],
      "stateMutability": "view",
      "type": "function"
    },
    {
      "inputs": [
        {
          "internalType": "string",
          "name": "link",
          "type": "string"
        },
        {
          "internalType": "string",
          "name": "_comment",
          "type": "string"
        }
      ],
      "name": "newcomment",
      "outputs": [],
      "stateMutability": "nonpayable",
      "type": "function"
    },
    {
      "inputs": [
        {
          "internalType": "address",
          "name": "_user",
          "type": "address"
        }
      ],
      "name": "ownDisplay",
      "outputs": [
        {
          "components": [
            {
              "internalType": "string",
              "name": "videoLink",
              "type": "string"
            },
            {
              "internalType": "string",
              "name": "videoName",
              "type": "string"
            },
            {
              "internalType": "string",
              "name": "videoDescription",
              "type": "string"
            },
            {
              "internalType": "uint256",
              "name": "videoPrice",
              "type": "uint256"
            },
            {
              "internalType": "bool",
              "name": "listed",
              "type": "bool"
            },
            {
              "internalType": "uint256",
              "name": "videoLikes",
              "type": "uint256"
            },
            {
              "internalType": "uint256",
              "name": "videoComments",
              "type": "uint256"
            },
            {
              "internalType": "string",
              "name": "videoCategory",
              "type": "string"
            },
            {
              "internalType": "address[]",
              "name": "likers",
              "type": "address[]"
            },
            {
              "components": [
                {
                  "internalType": "string",
                  "name": "line",
                  "type": "string"
                },
                {
                  "internalType": "address",
                  "name": "commenter",
                  "type": "address"
                },
                {
                  "internalType": "uint256",
                  "name": "tip",
                  "type": "uint256"
                }
              ],
              "internalType": "struct Chingari.comment[]",
              "name": "comments",
              "type": "tuple[]"
            },
            {
              "internalType": "address",
              "name": "owner",
              "type": "address"
            },
            {
              "internalType": "uint256",
              "name": "revenue",
              "type": "uint256"
            },
            {
              "internalType": "address[]",
              "name": "buyers",
              "type": "address[]"
            },
            {
              "internalType": "uint256",
              "name": "royaltyPercent",
              "type": "uint256"
            },
            {
              "internalType": "uint256",
              "name": "ownPercent",
              "type": "uint256"
            }
          ],
          "internalType": "struct Chingari.videonomap[]",
          "name": "",
          "type": "tuple[]"
        }
      ],
      "stateMutability": "view",
      "type": "function"
    },
    {
      "inputs": [
        {
          "internalType": "address",
          "name": "",
          "type": "address"
        },
        {
          "internalType": "uint256",
          "name": "",
          "type": "uint256"
        }
      ],
      "name": "vList",
      "outputs": [
        {
          "internalType": "string",
          "name": "",
          "type": "string"
        }
      ],
      "stateMutability": "view",
      "type": "function"
    }
  ],
  "bytecode": "0x608060405234801561001057600080fd5b50614196806100206000396000f3fe6080604052600436106100865760003560e01c8063bb33fefa11610059578063bb33fefa14610136578063e1972ae214610161578063e9a967fd1461019e578063ed95be9e146101e6578063f0a0f7061461021157610086565b80632edf21681461008b5780632fde70d1146100a75780634e08dbba146100d057806398fe76bd146100f9575b600080fd5b6100a560048036038101906100a09190613540565b61022d565b005b3480156100b357600080fd5b506100ce60048036038101906100c991906135bf565b61059a565b005b3480156100dc57600080fd5b506100f760048036038101906100f291906136aa565b61097f565b005b34801561010557600080fd5b50610120600480360381019061011b9190613780565b610aca565b60405161012d9190613848565b60405180910390f35b34801561014257600080fd5b5061014b610b83565b6040516101589190613cdd565b60405180910390f35b34801561016d57600080fd5b5061018860048036038101906101839190613cff565b611d19565b6040516101959190613cdd565b60405180910390f35b3480156101aa57600080fd5b506101c560048036038101906101c09190613540565b612ae2565b6040516101dd9c9b9a99989796959493929190613d59565b60405180910390f35b3480156101f257600080fd5b506101fb612da5565b6040516102089190613e2f565b60405180910390f35b61022b600480360381019061022691906136aa565b612e83565b005b60028160405161023d9190613e86565b9081526020016040518091039020600501600081548092919061025f90613ecc565b91905055506002816040516102749190613e86565b9081526020016040518091039020600801339080600181540180825580915050600190039060005260206000200160009091909190916101000a81548173ffffffffffffffffffffffffffffffffffffffff021916908373ffffffffffffffffffffffffffffffffffffffff160217905550346002826040516102f79190613e86565b9081526020016040518091039020600b0160008282546103179190613f15565b9250508190555060028160405161032e9190613e86565b9081526020016040518091039020600a0160009054906101000a900473ffffffffffffffffffffffffffffffffffffffff1673ffffffffffffffffffffffffffffffffffffffff166108fc606460028460405161038b9190613e86565b9081526020016040518091039020600f0154346103a89190613f6b565b6103b29190613ff4565b9081150290604051600060405180830381858888f193505050501580156103dd573d6000803e3d6000fd5b5060005b6002826040516103f19190613e86565b9081526020016040518091039020600c01805490508110156105965760028260405161041d9190613e86565b9081526020016040518091039020600c0181815481106104405761043f614025565b5b9060005260206000200160009054906101000a900473ffffffffffffffffffffffffffffffffffffffff1673ffffffffffffffffffffffffffffffffffffffff166108fc60646002856040516104969190613e86565b9081526020016040518091039020600d0160006002876040516104b99190613e86565b9081526020016040518091039020600c0186815481106104dc576104db614025565b5b9060005260206000200160009054906101000a900473ffffffffffffffffffffffffffffffffffffffff1673ffffffffffffffffffffffffffffffffffffffff1673ffffffffffffffffffffffffffffffffffffffff168152602001908152602001600020543461054d9190613f6b565b6105579190613ff4565b9081150290604051600060405180830381858888f19350505050158015610582573d6000803e3d6000fd5b50808061058e90613ecc565b9150506103e1565b5050565b6000805b600080549050811015610639573373ffffffffffffffffffffffffffffffffffffffff16600082815481106105d6576105d5614025565b5b9060005260206000200160009054906101000a900473ffffffffffffffffffffffffffffffffffffffff1673ffffffffffffffffffffffffffffffffffffffff1614156106265760019150610639565b808061063190613ecc565b91505061059e565b50806106a3576000339080600181540180825580915050600190039060005260206000200160009091909190916101000a81548173ffffffffffffffffffffffffffffffffffffffff021916908373ffffffffffffffffffffffffffffffffffffffff1602179055505b600160003373ffffffffffffffffffffffffffffffffffffffff1673ffffffffffffffffffffffffffffffffffffffff1681526020019081526020016000208690806001815401808255809150506001900390600052602060002001600090919091909150908051906020019061071b92919061327e565b503360028760405161072d9190613e86565b9081526020016040518091039020600a0160006101000a81548173ffffffffffffffffffffffffffffffffffffffff021916908373ffffffffffffffffffffffffffffffffffffffff1602179055508560028760405161078d9190613e86565b908152602001604051809103902060000190805190602001906107b192919061327e565b50846002876040516107c39190613e86565b908152602001604051809103902060010190805190602001906107e792919061327e565b50836002876040516107f99190613e86565b9081526020016040518091039020600201908051906020019061081d92919061327e565b508260028760405161082f9190613e86565b9081526020016040518091039020600701908051906020019061085392919061327e565b50816002876040516108659190613e86565b908152602001604051809103902060030181905550600060028760405161088c9190613e86565b90815260200160405180910390206005018190555060006002876040516108b39190613e86565b908152602001604051809103902060040160006101000a81548160ff02191690831515021790555060006002876040516108ed9190613e86565b90815260200160405180910390206006018190555060006002876040516109149190613e86565b9081526020016040518091039020600b0181905550606460028760405161093b9190613e86565b9081526020016040518091039020600f018190555060006002876040516109629190613e86565b9081526020016040518091039020600e0181905550505050505050565b60028260405161098f9190613e86565b908152602001604051809103902060060160008154809291906109b190613ecc565b91905055506109be613304565b81816000018190525033816020019073ffffffffffffffffffffffffffffffffffffffff16908173ffffffffffffffffffffffffffffffffffffffff16815250506000816040018181525050600283604051610a1a9190613e86565b90815260200160405180910390206009018190806001815401808255809150506001900390600052602060002090600302016000909190919091506000820151816000019080519060200190610a7192919061327e565b5060208201518160010160006101000a81548173ffffffffffffffffffffffffffffffffffffffff021916908373ffffffffffffffffffffffffffffffffffffffff160217905550604082015181600201555050505050565b60016020528160005260406000208181548110610ae657600080fd5b90600052602060002001600091509150508054610b0290614083565b80601f0160208091040260200160405190810160405280929190818152602001828054610b2e90614083565b8015610b7b5780601f10610b5057610100808354040283529160200191610b7b565b820191906000526020600020905b815481529060010190602001808311610b5e57829003601f168201915b505050505081565b60606000610b8f612da5565b905060008167ffffffffffffffff811115610bad57610bac613415565b5b604051908082528060200260200182016040528015610be657816020015b610bd361333b565b815260200190600190039081610bcb5790505b509050610bf161333b565b6000805b600080549050811015611d0e5760005b60016000808481548110610c1c57610c1b614025565b5b9060005260206000200160009054906101000a900473ffffffffffffffffffffffffffffffffffffffff1673ffffffffffffffffffffffffffffffffffffffff1673ffffffffffffffffffffffffffffffffffffffff16815260200190815260200160002080549050811015611cfa57600260016000808581548110610ca557610ca4614025565b5b9060005260206000200160009054906101000a900473ffffffffffffffffffffffffffffffffffffffff1673ffffffffffffffffffffffffffffffffffffffff1673ffffffffffffffffffffffffffffffffffffffff1681526020019081526020016000208281548110610d1c57610d1b614025565b5b90600052602060002001604051610d339190614149565b9081526020016040518091039020600a0160009054906101000a900473ffffffffffffffffffffffffffffffffffffffff1684610140019073ffffffffffffffffffffffffffffffffffffffff16908173ffffffffffffffffffffffffffffffffffffffff1681525050600260016000808581548110610db657610db5614025565b5b9060005260206000200160009054906101000a900473ffffffffffffffffffffffffffffffffffffffff1673ffffffffffffffffffffffffffffffffffffffff1673ffffffffffffffffffffffffffffffffffffffff1681526020019081526020016000208281548110610e2d57610e2c614025565b5b90600052602060002001604051610e449190614149565b90815260200160405180910390206000018054610e6090614083565b80601f0160208091040260200160405190810160405280929190818152602001828054610e8c90614083565b8015610ed95780601f10610eae57610100808354040283529160200191610ed9565b820191906000526020600020905b815481529060010190602001808311610ebc57829003601f168201915b50505050508460000181905250600260016000808581548110610eff57610efe614025565b5b9060005260206000200160009054906101000a900473ffffffffffffffffffffffffffffffffffffffff1673ffffffffffffffffffffffffffffffffffffffff1673ffffffffffffffffffffffffffffffffffffffff1681526020019081526020016000208281548110610f7657610f75614025565b5b90600052602060002001604051610f8d9190614149565b90815260200160405180910390206001018054610fa990614083565b80601f0160208091040260200160405190810160405280929190818152602001828054610fd590614083565b80156110225780601f10610ff757610100808354040283529160200191611022565b820191906000526020600020905b81548152906001019060200180831161100557829003601f168201915b5050505050846020018190525060026001600080858154811061104857611047614025565b5b9060005260206000200160009054906101000a900473ffffffffffffffffffffffffffffffffffffffff1673ffffffffffffffffffffffffffffffffffffffff1673ffffffffffffffffffffffffffffffffffffffff16815260200190815260200160002082815481106110bf576110be614025565b5b906000526020600020016040516110d69190614149565b908152602001604051809103902060020180546110f290614083565b80601f016020809104026020016040519081016040528092919081815260200182805461111e90614083565b801561116b5780601f106111405761010080835404028352916020019161116b565b820191906000526020600020905b81548152906001019060200180831161114e57829003601f168201915b5050505050846040018190525060026001600080858154811061119157611190614025565b5b9060005260206000200160009054906101000a900473ffffffffffffffffffffffffffffffffffffffff1673ffffffffffffffffffffffffffffffffffffffff1673ffffffffffffffffffffffffffffffffffffffff168152602001908152602001600020828154811061120857611207614025565b5b9060005260206000200160405161121f9190614149565b90815260200160405180910390206003015484606001818152505060026001600080858154811061125357611252614025565b5b9060005260206000200160009054906101000a900473ffffffffffffffffffffffffffffffffffffffff1673ffffffffffffffffffffffffffffffffffffffff1673ffffffffffffffffffffffffffffffffffffffff16815260200190815260200160002082815481106112ca576112c9614025565b5b906000526020600020016040516112e19190614149565b908152602001604051809103902060040160009054906101000a900460ff1684608001901515908115158152505060026001600080858154811061132857611327614025565b5b9060005260206000200160009054906101000a900473ffffffffffffffffffffffffffffffffffffffff1673ffffffffffffffffffffffffffffffffffffffff1673ffffffffffffffffffffffffffffffffffffffff168152602001908152602001600020828154811061139f5761139e614025565b5b906000526020600020016040516113b69190614149565b9081526020016040518091039020600501548460a00181815250506002600160008085815481106113ea576113e9614025565b5b9060005260206000200160009054906101000a900473ffffffffffffffffffffffffffffffffffffffff1673ffffffffffffffffffffffffffffffffffffffff1673ffffffffffffffffffffffffffffffffffffffff168152602001908152602001600020828154811061146157611460614025565b5b906000526020600020016040516114789190614149565b9081526020016040518091039020600601548460c00181815250506002600160008085815481106114ac576114ab614025565b5b9060005260206000200160009054906101000a900473ffffffffffffffffffffffffffffffffffffffff1673ffffffffffffffffffffffffffffffffffffffff1673ffffffffffffffffffffffffffffffffffffffff168152602001908152602001600020828154811061152357611522614025565b5b9060005260206000200160405161153a9190614149565b9081526020016040518091039020600701805461155690614083565b80601f016020809104026020016040519081016040528092919081815260200182805461158290614083565b80156115cf5780601f106115a4576101008083540402835291602001916115cf565b820191906000526020600020905b8154815290600101906020018083116115b257829003601f168201915b50505050508460e001819052506002600160008085815481106115f5576115f4614025565b5b9060005260206000200160009054906101000a900473ffffffffffffffffffffffffffffffffffffffff1673ffffffffffffffffffffffffffffffffffffffff1673ffffffffffffffffffffffffffffffffffffffff168152602001908152602001600020828154811061166c5761166b614025565b5b906000526020600020016040516116839190614149565b908152602001604051809103902060080180548060200260200160405190810160405280929190818152602001828054801561171457602002820191906000526020600020905b8160009054906101000a900473ffffffffffffffffffffffffffffffffffffffff1673ffffffffffffffffffffffffffffffffffffffff16815260200190600101908083116116ca575b505050505084610100018190525060026001600080858154811061173b5761173a614025565b5b9060005260206000200160009054906101000a900473ffffffffffffffffffffffffffffffffffffffff1673ffffffffffffffffffffffffffffffffffffffff1673ffffffffffffffffffffffffffffffffffffffff16815260200190815260200160002082815481106117b2576117b1614025565b5b906000526020600020016040516117c99190614149565b9081526020016040518091039020600901805480602002602001604051908101604052809291908181526020016000905b8282101561191e578382906000526020600020906003020160405180606001604052908160008201805461182d90614083565b80601f016020809104026020016040519081016040528092919081815260200182805461185990614083565b80156118a65780601f1061187b576101008083540402835291602001916118a6565b820191906000526020600020905b81548152906001019060200180831161188957829003601f168201915b505050505081526020016001820160009054906101000a900473ffffffffffffffffffffffffffffffffffffffff1673ffffffffffffffffffffffffffffffffffffffff1673ffffffffffffffffffffffffffffffffffffffff168152602001600282015481525050815260200190600101906117fa565b5050505084610120018190525060026001600080858154811061194457611943614025565b5b9060005260206000200160009054906101000a900473ffffffffffffffffffffffffffffffffffffffff1673ffffffffffffffffffffffffffffffffffffffff1673ffffffffffffffffffffffffffffffffffffffff16815260200190815260200160002082815481106119bb576119ba614025565b5b906000526020600020016040516119d29190614149565b9081526020016040518091039020600b015484610160018181525050600260016000808581548110611a0757611a06614025565b5b9060005260206000200160009054906101000a900473ffffffffffffffffffffffffffffffffffffffff1673ffffffffffffffffffffffffffffffffffffffff1673ffffffffffffffffffffffffffffffffffffffff1681526020019081526020016000208281548110611a7e57611a7d614025565b5b90600052602060002001604051611a959190614149565b9081526020016040518091039020600c01805480602002602001604051908101604052809291908181526020018280548015611b2657602002820191906000526020600020905b8160009054906101000a900473ffffffffffffffffffffffffffffffffffffffff1673ffffffffffffffffffffffffffffffffffffffff1681526020019060010190808311611adc575b5050505050846101800181905250600260016000808581548110611b4d57611b4c614025565b5b9060005260206000200160009054906101000a900473ffffffffffffffffffffffffffffffffffffffff1673ffffffffffffffffffffffffffffffffffffffff1673ffffffffffffffffffffffffffffffffffffffff1681526020019081526020016000208281548110611bc457611bc3614025565b5b90600052602060002001604051611bdb9190614149565b9081526020016040518091039020600e0154846101a0018181525050600260016000808581548110611c1057611c0f614025565b5b9060005260206000200160009054906101000a900473ffffffffffffffffffffffffffffffffffffffff1673ffffffffffffffffffffffffffffffffffffffff1673ffffffffffffffffffffffffffffffffffffffff1681526020019081526020016000208281548110611c8757611c86614025565b5b90600052602060002001604051611c9e9190614149565b9081526020016040518091039020600f0154846101c001818152505083858481518110611cce57611ccd614025565b5b60200260200101819052508280611ce490613ecc565b9350508080611cf290613ecc565b915050610c05565b508080611d0690613ecc565b915050610bf5565b508294505050505090565b60606000600160008473ffffffffffffffffffffffffffffffffffffffff1673ffffffffffffffffffffffffffffffffffffffff1681526020019081526020016000208054905067ffffffffffffffff811115611d7957611d78613415565b5b604051908082528060200260200182016040528015611db257816020015b611d9f61333b565b815260200190600190039081611d975790505b509050611dbd61333b565b60005b600160008673ffffffffffffffffffffffffffffffffffffffff1673ffffffffffffffffffffffffffffffffffffffff16815260200190815260200160002080549050811015612ad7576002600160008773ffffffffffffffffffffffffffffffffffffffff1673ffffffffffffffffffffffffffffffffffffffff1681526020019081526020016000208281548110611e5d57611e5c614025565b5b90600052602060002001604051611e749190614149565b9081526020016040518091039020600a0160009054906101000a900473ffffffffffffffffffffffffffffffffffffffff1682610140019073ffffffffffffffffffffffffffffffffffffffff16908173ffffffffffffffffffffffffffffffffffffffff16815250506002600160008773ffffffffffffffffffffffffffffffffffffffff1673ffffffffffffffffffffffffffffffffffffffff1681526020019081526020016000208281548110611f3157611f30614025565b5b90600052602060002001604051611f489190614149565b90815260200160405180910390206000018054611f6490614083565b80601f0160208091040260200160405190810160405280929190818152602001828054611f9090614083565b8015611fdd5780601f10611fb257610100808354040283529160200191611fdd565b820191906000526020600020905b815481529060010190602001808311611fc057829003601f168201915b505050505082600001819052506002600160008773ffffffffffffffffffffffffffffffffffffffff1673ffffffffffffffffffffffffffffffffffffffff168152602001908152602001600020828154811061203d5761203c614025565b5b906000526020600020016040516120549190614149565b9081526020016040518091039020600101805461207090614083565b80601f016020809104026020016040519081016040528092919081815260200182805461209c90614083565b80156120e95780601f106120be576101008083540402835291602001916120e9565b820191906000526020600020905b8154815290600101906020018083116120cc57829003601f168201915b505050505082602001819052506002600160008773ffffffffffffffffffffffffffffffffffffffff1673ffffffffffffffffffffffffffffffffffffffff168152602001908152602001600020828154811061214957612148614025565b5b906000526020600020016040516121609190614149565b9081526020016040518091039020600201805461217c90614083565b80601f01602080910402602001604051908101604052809291908181526020018280546121a890614083565b80156121f55780601f106121ca576101008083540402835291602001916121f5565b820191906000526020600020905b8154815290600101906020018083116121d857829003601f168201915b505050505082604001819052506002600160008773ffffffffffffffffffffffffffffffffffffffff1673ffffffffffffffffffffffffffffffffffffffff168152602001908152602001600020828154811061225557612254614025565b5b9060005260206000200160405161226c9190614149565b9081526020016040518091039020600301548260600181815250506002600160008773ffffffffffffffffffffffffffffffffffffffff1673ffffffffffffffffffffffffffffffffffffffff16815260200190815260200160002082815481106122da576122d9614025565b5b906000526020600020016040516122f19190614149565b908152602001604051809103902060040160009054906101000a900460ff168260800190151590811515815250506002600160008773ffffffffffffffffffffffffffffffffffffffff1673ffffffffffffffffffffffffffffffffffffffff168152602001908152602001600020828154811061237257612371614025565b5b906000526020600020016040516123899190614149565b9081526020016040518091039020600501548260a00181815250506002600160008773ffffffffffffffffffffffffffffffffffffffff1673ffffffffffffffffffffffffffffffffffffffff16815260200190815260200160002082815481106123f7576123f6614025565b5b9060005260206000200160405161240e9190614149565b9081526020016040518091039020600601548260c00181815250506002600160008773ffffffffffffffffffffffffffffffffffffffff1673ffffffffffffffffffffffffffffffffffffffff168152602001908152602001600020828154811061247c5761247b614025565b5b906000526020600020016040516124939190614149565b908152602001604051809103902060070180546124af90614083565b80601f01602080910402602001604051908101604052809291908181526020018280546124db90614083565b80156125285780601f106124fd57610100808354040283529160200191612528565b820191906000526020600020905b81548152906001019060200180831161250b57829003601f168201915b50505050508260e001819052506002600160008773ffffffffffffffffffffffffffffffffffffffff1673ffffffffffffffffffffffffffffffffffffffff168152602001908152602001600020828154811061258857612587614025565b5b9060005260206000200160405161259f9190614149565b908152602001604051809103902060080180548060200260200160405190810160405280929190818152602001828054801561263057602002820191906000526020600020905b8160009054906101000a900473ffffffffffffffffffffffffffffffffffffffff1673ffffffffffffffffffffffffffffffffffffffff16815260200190600101908083116125e6575b50505050508261010001819052506002600160008773ffffffffffffffffffffffffffffffffffffffff1673ffffffffffffffffffffffffffffffffffffffff168152602001908152602001600020828154811061269157612690614025565b5b906000526020600020016040516126a89190614149565b9081526020016040518091039020600901805480602002602001604051908101604052809291908181526020016000905b828210156127fd578382906000526020600020906003020160405180606001604052908160008201805461270c90614083565b80601f016020809104026020016040519081016040528092919081815260200182805461273890614083565b80156127855780601f1061275a57610100808354040283529160200191612785565b820191906000526020600020905b81548152906001019060200180831161276857829003601f168201915b505050505081526020016001820160009054906101000a900473ffffffffffffffffffffffffffffffffffffffff1673ffffffffffffffffffffffffffffffffffffffff1673ffffffffffffffffffffffffffffffffffffffff168152602001600282015481525050815260200190600101906126d9565b505050508261012001819052506002600160008773ffffffffffffffffffffffffffffffffffffffff1673ffffffffffffffffffffffffffffffffffffffff168152602001908152602001600020828154811061285d5761285c614025565b5b906000526020600020016040516128749190614149565b9081526020016040518091039020600b0154826101600181815250506002600160008773ffffffffffffffffffffffffffffffffffffffff1673ffffffffffffffffffffffffffffffffffffffff16815260200190815260200160002082815481106128e3576128e2614025565b5b906000526020600020016040516128fa9190614149565b9081526020016040518091039020600c0180548060200260200160405190810160405280929190818152602001828054801561298b57602002820191906000526020600020905b8160009054906101000a900473ffffffffffffffffffffffffffffffffffffffff1673ffffffffffffffffffffffffffffffffffffffff1681526020019060010190808311612941575b50505050508261018001819052506002600160008773ffffffffffffffffffffffffffffffffffffffff1673ffffffffffffffffffffffffffffffffffffffff16815260200190815260200160002082815481106129ec576129eb614025565b5b90600052602060002001604051612a039190614149565b9081526020016040518091039020600e0154826101a00181815250506002600160008773ffffffffffffffffffffffffffffffffffffffff1673ffffffffffffffffffffffffffffffffffffffff1681526020019081526020016000208281548110612a7257612a71614025565b5b90600052602060002001604051612a899190614149565b9081526020016040518091039020600f0154826101c001818152505081838281518110612ab957612ab8614025565b5b60200260200101819052508080612acf90613ecc565b915050611dc0565b508192505050919050565b600281805160208101820180518482526020830160208501208183528095505050505050600091509050806000018054612b1b90614083565b80601f0160208091040260200160405190810160405280929190818152602001828054612b4790614083565b8015612b945780601f10612b6957610100808354040283529160200191612b94565b820191906000526020600020905b815481529060010190602001808311612b7757829003601f168201915b505050505090806001018054612ba990614083565b80601f0160208091040260200160405190810160405280929190818152602001828054612bd590614083565b8015612c225780601f10612bf757610100808354040283529160200191612c22565b820191906000526020600020905b815481529060010190602001808311612c0557829003601f168201915b505050505090806002018054612c3790614083565b80601f0160208091040260200160405190810160405280929190818152602001828054612c6390614083565b8015612cb05780601f10612c8557610100808354040283529160200191612cb0565b820191906000526020600020905b815481529060010190602001808311612c9357829003601f168201915b5050505050908060030154908060040160009054906101000a900460ff1690806005015490806006015490806007018054612cea90614083565b80601f0160208091040260200160405190810160405280929190818152602001828054612d1690614083565b8015612d635780601f10612d3857610100808354040283529160200191612d63565b820191906000526020600020905b815481529060010190602001808311612d4657829003601f168201915b50505050509080600a0160009054906101000a900473ffffffffffffffffffffffffffffffffffffffff169080600b01549080600e01549080600f015490508c565b6000806000905060005b600080549050811015612e7b5760005b60016000808481548110612dd657612dd5614025565b5b9060005260206000200160009054906101000a900473ffffffffffffffffffffffffffffffffffffffff1673ffffffffffffffffffffffffffffffffffffffff1673ffffffffffffffffffffffffffffffffffffffff16815260200190815260200160002080549050811015612e67578280612e5190613ecc565b9350508080612e5f90613ecc565b915050612dbf565b508080612e7390613ecc565b915050612daf565b508091505090565b600282604051612e939190613e86565b90815260200160405180910390206006016000815480929190612eb590613ecc565b9190505550612ec2613304565b81816000018190525033816020019073ffffffffffffffffffffffffffffffffffffffff16908173ffffffffffffffffffffffffffffffffffffffff168152505034816040018181525050600283604051612f1d9190613e86565b90815260200160405180910390206009018190806001815401808255809150506001900390600052602060002090600302016000909190919091506000820151816000019080519060200190612f7492919061327e565b5060208201518160010160006101000a81548173ffffffffffffffffffffffffffffffffffffffff021916908373ffffffffffffffffffffffffffffffffffffffff16021790555060408201518160020155505034600284604051612fd99190613e86565b9081526020016040518091039020600b016000828254612ff99190613f15565b925050819055506002836040516130109190613e86565b9081526020016040518091039020600a0160009054906101000a900473ffffffffffffffffffffffffffffffffffffffff1673ffffffffffffffffffffffffffffffffffffffff166108fc606460028660405161306d9190613e86565b9081526020016040518091039020600f01543461308a9190613f6b565b6130949190613ff4565b9081150290604051600060405180830381858888f193505050501580156130bf573d6000803e3d6000fd5b5060005b6002846040516130d39190613e86565b9081526020016040518091039020600c0180549050811015613278576002846040516130ff9190613e86565b9081526020016040518091039020600c01818154811061312257613121614025565b5b9060005260206000200160009054906101000a900473ffffffffffffffffffffffffffffffffffffffff1673ffffffffffffffffffffffffffffffffffffffff166108fc60646002876040516131789190613e86565b9081526020016040518091039020600d01600060028960405161319b9190613e86565b9081526020016040518091039020600c0186815481106131be576131bd614025565b5b9060005260206000200160009054906101000a900473ffffffffffffffffffffffffffffffffffffffff1673ffffffffffffffffffffffffffffffffffffffff1673ffffffffffffffffffffffffffffffffffffffff168152602001908152602001600020543461322f9190613f6b565b6132399190613ff4565b9081150290604051600060405180830381858888f19350505050158015613264573d6000803e3d6000fd5b50808061327090613ecc565b9150506130c3565b50505050565b82805461328a90614083565b90600052602060002090601f0160209004810192826132ac57600085556132f3565b82601f106132c557805160ff19168380011785556132f3565b828001600101855582156132f3579182015b828111156132f25782518255916020019190600101906132d7565b5b50905061330091906133c9565b5090565b604051806060016040528060608152602001600073ffffffffffffffffffffffffffffffffffffffff168152602001600081525090565b604051806101e00160405280606081526020016060815260200160608152602001600081526020016000151581526020016000815260200160008152602001606081526020016060815260200160608152602001600073ffffffffffffffffffffffffffffffffffffffff168152602001600081526020016060815260200160008152602001600081525090565b5b808211156133e25760008160009055506001016133ca565b5090565b6000604051905090565b600080fd5b600080fd5b600080fd5b600080fd5b6000601f19601f8301169050919050565b7f4e487b7100000000000000000000000000000000000000000000000000000000600052604160045260246000fd5b61344d82613404565b810181811067ffffffffffffffff8211171561346c5761346b613415565b5b80604052505050565b600061347f6133e6565b905061348b8282613444565b919050565b600067ffffffffffffffff8211156134ab576134aa613415565b5b6134b482613404565b9050602081019050919050565b82818337600083830152505050565b60006134e36134de84613490565b613475565b9050828152602081018484840111156134ff576134fe6133ff565b5b61350a8482856134c1565b509392505050565b600082601f830112613527576135266133fa565b5b81356135378482602086016134d0565b91505092915050565b600060208284031215613556576135556133f0565b5b600082013567ffffffffffffffff811115613574576135736133f5565b5b61358084828501613512565b91505092915050565b6000819050919050565b61359c81613589565b81146135a757600080fd5b50565b6000813590506135b981613593565b92915050565b600080600080600060a086880312156135db576135da6133f0565b5b600086013567ffffffffffffffff8111156135f9576135f86133f5565b5b61360588828901613512565b955050602086013567ffffffffffffffff811115613626576136256133f5565b5b61363288828901613512565b945050604086013567ffffffffffffffff811115613653576136526133f5565b5b61365f88828901613512565b935050606086013567ffffffffffffffff8111156136805761367f6133f5565b5b61368c88828901613512565b925050608061369d888289016135aa565b9150509295509295909350565b600080604083850312156136c1576136c06133f0565b5b600083013567ffffffffffffffff8111156136df576136de6133f5565b5b6136eb85828601613512565b925050602083013567ffffffffffffffff81111561370c5761370b6133f5565b5b61371885828601613512565b9150509250929050565b600073ffffffffffffffffffffffffffffffffffffffff82169050919050565b600061374d82613722565b9050919050565b61375d81613742565b811461376857600080fd5b50565b60008135905061377a81613754565b92915050565b60008060408385031215613797576137966133f0565b5b60006137a58582860161376b565b92505060206137b6858286016135aa565b9150509250929050565b600081519050919050565b600082825260208201905092915050565b60005b838110156137fa5780820151818401526020810190506137df565b83811115613809576000848401525b50505050565b600061381a826137c0565b61382481856137cb565b93506138348185602086016137dc565b61383d81613404565b840191505092915050565b60006020820190508181036000830152613862818461380f565b905092915050565b600081519050919050565b600082825260208201905092915050565b6000819050602082019050919050565b600082825260208201905092915050565b60006138b2826137c0565b6138bc8185613896565b93506138cc8185602086016137dc565b6138d581613404565b840191505092915050565b6138e981613589565b82525050565b60008115159050919050565b613904816138ef565b82525050565b600081519050919050565b600082825260208201905092915050565b6000819050602082019050919050565b61393f81613742565b82525050565b60006139518383613936565b60208301905092915050565b6000602082019050919050565b60006139758261390a565b61397f8185613915565b935061398a83613926565b8060005b838110156139bb5781516139a28882613945565b97506139ad8361395d565b92505060018101905061398e565b5085935050505092915050565b600081519050919050565b600082825260208201905092915050565b6000819050602082019050919050565b60006060830160008301518482036000860152613a1182826138a7565b9150506020830151613a266020860182613936565b506040830151613a3960408601826138e0565b508091505092915050565b6000613a5083836139f4565b905092915050565b6000602082019050919050565b6000613a70826139c8565b613a7a81856139d3565b935083602082028501613a8c856139e4565b8060005b85811015613ac85784840389528151613aa98582613a44565b9450613ab483613a58565b925060208a01995050600181019050613a90565b50829750879550505050505092915050565b60006101e0830160008301518482036000860152613af882826138a7565b91505060208301518482036020860152613b1282826138a7565b91505060408301518482036040860152613b2c82826138a7565b9150506060830151613b4160608601826138e0565b506080830151613b5460808601826138fb565b5060a0830151613b6760a08601826138e0565b5060c0830151613b7a60c08601826138e0565b5060e083015184820360e0860152613b9282826138a7565b915050610100830151848203610100860152613bae828261396a565b915050610120830151848203610120860152613bca8282613a65565b915050610140830151613be1610140860182613936565b50610160830151613bf66101608601826138e0565b50610180830151848203610180860152613c10828261396a565b9150506101a0830151613c276101a08601826138e0565b506101c0830151613c3c6101c08601826138e0565b508091505092915050565b6000613c538383613ada565b905092915050565b6000602082019050919050565b6000613c738261386a565b613c7d8185613875565b935083602082028501613c8f85613886565b8060005b85811015613ccb5784840389528151613cac8582613c47565b9450613cb783613c5b565b925060208a01995050600181019050613c93565b50829750879550505050505092915050565b60006020820190508181036000830152613cf78184613c68565b905092915050565b600060208284031215613d1557613d146133f0565b5b6000613d238482850161376b565b91505092915050565b613d3581613589565b82525050565b613d44816138ef565b82525050565b613d5381613742565b82525050565b6000610180820190508181036000830152613d74818f61380f565b90508181036020830152613d88818e61380f565b90508181036040830152613d9c818d61380f565b9050613dab606083018c613d2c565b613db8608083018b613d3b565b613dc560a083018a613d2c565b613dd260c0830189613d2c565b81810360e0830152613de4818861380f565b9050613df4610100830187613d4a565b613e02610120830186613d2c565b613e10610140830185613d2c565b613e1e610160830184613d2c565b9d9c50505050505050505050505050565b6000602082019050613e446000830184613d2c565b92915050565b600081905092915050565b6000613e60826137c0565b613e6a8185613e4a565b9350613e7a8185602086016137dc565b80840191505092915050565b6000613e928284613e55565b915081905092915050565b7f4e487b7100000000000000000000000000000000000000000000000000000000600052601160045260246000fd5b6000613ed782613589565b91507fffffffffffffffffffffffffffffffffffffffffffffffffffffffffffffffff821415613f0a57613f09613e9d565b5b600182019050919050565b6000613f2082613589565b9150613f2b83613589565b9250827fffffffffffffffffffffffffffffffffffffffffffffffffffffffffffffffff03821115613f6057613f5f613e9d565b5b828201905092915050565b6000613f7682613589565b9150613f8183613589565b9250817fffffffffffffffffffffffffffffffffffffffffffffffffffffffffffffffff0483118215151615613fba57613fb9613e9d565b5b828202905092915050565b7f4e487b7100000000000000000000000000000000000000000000000000000000600052601260045260246000fd5b6000613fff82613589565b915061400a83613589565b92508261401a57614019613fc5565b5b828204905092915050565b7f4e487b7100000000000000000000000000000000000000000000000000000000600052603260045260246000fd5b7f4e487b7100000000000000000000000000000000000000000000000000000000600052602260045260246000fd5b6000600282049050600182168061409b57607f821691505b602082108114156140af576140ae614054565b5b50919050565b60008190508160005260206000209050919050565b600081546140d781614083565b6140e18186613e4a565b945060018216600081146140fc576001811461410d57614140565b60ff19831686528186019350614140565b614116856140b5565b60005b8381101561413857815481890152600182019150602081019050614119565b838801955050505b50505092915050565b600061415582846140ca565b91508190509291505056fea26469706673582212204cbf8760677503b7b421723129161f66c194bf5646ede7f6b0aff2e0338e800764736f6c63430008090033",
  "linkReferences": {},
  "deployedLinkReferences": {}
}